{
  "address": "0x553c3340803a9451EcA79473C8EFccE535d30c05",
  "abi": [
    {
      "inputs": [],
      "stateMutability": "nonpayable",
      "type": "constructor"
    },
    {
      "inputs": [
        {
          "internalType": "bytes",
          "name": "extra",
          "type": "bytes"
        },
        {
          "internalType": "address[7]",
          "name": "addresses",
          "type": "address[7]"
        },
        {
          "internalType": "enum AuthenticatedProxy.HowToCall[2]",
          "name": "howToCalls",
          "type": "uint8[2]"
        },
        {
          "internalType": "uint256[6]",
          "name": "uints",
          "type": "uint256[6]"
        },
        {
          "internalType": "bytes",
          "name": "data",
          "type": "bytes"
        },
        {
          "internalType": "bytes",
          "name": "counterdata",
          "type": "bytes"
        }
      ],
      "name": "ERC20ForERC721",
      "outputs": [
        {
          "internalType": "uint256",
          "name": "",
          "type": "uint256"
        }
      ],
      "stateMutability": "pure",
      "type": "function"
    },
    {
      "inputs": [
        {
          "internalType": "bytes",
          "name": "extra",
          "type": "bytes"
        },
        {
          "internalType": "address[7]",
          "name": "addresses",
          "type": "address[7]"
        },
        {
          "internalType": "enum AuthenticatedProxy.HowToCall[2]",
          "name": "howToCalls",
          "type": "uint8[2]"
        },
        {
          "internalType": "uint256[6]",
          "name": "uints",
          "type": "uint256[6]"
        },
        {
          "internalType": "bytes",
          "name": "data",
          "type": "bytes"
        },
        {
          "internalType": "bytes",
          "name": "counterdata",
          "type": "bytes"
        }
      ],
      "name": "ERC721ForERC20",
      "outputs": [
        {
          "internalType": "uint256",
          "name": "",
          "type": "uint256"
        }
      ],
      "stateMutability": "pure",
      "type": "function"
    },
    {
      "inputs": [
        {
          "internalType": "bytes",
          "name": "extra",
          "type": "bytes"
        },
        {
          "internalType": "address[7]",
          "name": "addresses",
          "type": "address[7]"
        },
        {
          "internalType": "enum AuthenticatedProxy.HowToCall[2]",
          "name": "howToCalls",
          "type": "uint8[2]"
        },
        {
          "internalType": "uint256[6]",
          "name": "uints",
          "type": "uint256[6]"
        },
        {
          "internalType": "bytes",
          "name": "data",
          "type": "bytes"
        },
        {
          "internalType": "bytes",
          "name": "counterdata",
          "type": "bytes"
        }
      ],
      "name": "anyERC1155ForERC20",
      "outputs": [
        {
          "internalType": "uint256",
          "name": "",
          "type": "uint256"
        }
      ],
      "stateMutability": "pure",
      "type": "function"
    },
    {
      "inputs": [
        {
          "internalType": "bytes",
          "name": "extra",
          "type": "bytes"
        },
        {
          "internalType": "address[7]",
          "name": "addresses",
          "type": "address[7]"
        },
        {
          "internalType": "enum AuthenticatedProxy.HowToCall[2]",
          "name": "howToCalls",
          "type": "uint8[2]"
        },
        {
          "internalType": "uint256[6]",
          "name": "uints",
          "type": "uint256[6]"
        },
        {
          "internalType": "bytes",
          "name": "data",
          "type": "bytes"
        },
        {
          "internalType": "bytes",
          "name": "counterdata",
          "type": "bytes"
        }
      ],
      "name": "anyERC20ForERC1155",
      "outputs": [
        {
          "internalType": "uint256",
          "name": "",
          "type": "uint256"
        }
      ],
      "stateMutability": "pure",
      "type": "function"
    },
    {
      "inputs": [
        {
          "internalType": "bytes",
          "name": "extra",
          "type": "bytes"
        },
        {
          "internalType": "address[7]",
          "name": "addresses",
          "type": "address[7]"
        },
        {
          "internalType": "enum AuthenticatedProxy.HowToCall[2]",
          "name": "howToCalls",
          "type": "uint8[2]"
        },
        {
          "internalType": "uint256[6]",
          "name": "uints",
          "type": "uint256[6]"
        },
        {
          "internalType": "bytes",
          "name": "data",
          "type": "bytes"
        },
        {
          "internalType": "bytes",
          "name": "counterdata",
          "type": "bytes"
        }
      ],
      "name": "anyERC20ForERC20",
      "outputs": [
        {
          "internalType": "uint256",
          "name": "",
          "type": "uint256"
        }
      ],
      "stateMutability": "pure",
      "type": "function"
    },
    {
      "inputs": [],
      "name": "name",
      "outputs": [
        {
          "internalType": "string",
          "name": "",
          "type": "string"
        }
      ],
      "stateMutability": "view",
      "type": "function"
    }
  ],
  "transactionHash": "0x35e3599be5613cc0bf752e25d7183c24c19b8fc0fc1290d176c961c52091ff53",
  "args": [],
  "numDeployments": 1,
  "solcInputHash": "0c7a43037bc973b90378f1240c2c1e62",
  "bytecode": "0x608060405234801561001057600080fd5b50612242806100206000396000f3fe608060405234801561001057600080fd5b50600436106100625760003560e01c806306fdde031461006757806323b04789146100e45780637a7f30e014610326578063a6139b5814610556578063b9845b9514610786578063c3d3626a146109b6575b600080fd5b61006f610be6565b6040805160208082528351818301528351919283929083019185019080838360005b838110156100a9578181015183820152602001610091565b50505050905090810190601f1680156100d65780820380516001836020036101000a031916815260200191505b509250505060405180910390f35b61031460048036036102408110156100fb57600080fd5b810190602081018135600160201b81111561011557600080fd5b82018360208201111561012757600080fd5b803590602001918460018302840111600160201b8311171561014857600080fd5b91908080601f016020809104026020016040519081016040528093929190818152602001838380828437600092019190915250506040805160e081810190925293969594818101949350915060079083908390808284376000920191909152505060408051808201825292959493818101939250906002908390839080828437600092019190915250506040805160c08181019092529295949381810193925090600690839083908082843760009201919091525091949392602081019250359050600160201b81111561021b57600080fd5b82018360208201111561022d57600080fd5b803590602001918460018302840111600160201b8311171561024e57600080fd5b91908080601f0160208091040260200160405190810160405280939291908181526020018383808284376000920191909152509295949360208101935035915050600160201b8111156102a057600080fd5b8201836020820111156102b257600080fd5b803590602001918460018302840111600160201b831117156102d357600080fd5b91908080601f016020809104026020016040519081016040528093929190818152602001838380828437600092019190915250929550610c0f945050505050565b60408051918252519081900360200190f35b610314600480360361024081101561033d57600080fd5b810190602081018135600160201b81111561035757600080fd5b82018360208201111561036957600080fd5b803590602001918460018302840111600160201b8311171561038a57600080fd5b91908080601f016020809104026020016040519081016040528093929190818152602001838380828437600092019190915250506040805160e081810190925293969594818101949350915060079083908390808284376000920191909152505060408051808201825292959493818101939250906002908390839080828437600092019190915250506040805160c08181019092529295949381810193925090600690839083908082843760009201919091525091949392602081019250359050600160201b81111561045d57600080fd5b82018360208201111561046f57600080fd5b803590602001918460018302840111600160201b8311171561049057600080fd5b91908080601f0160208091040260200160405190810160405280939291908181526020018383808284376000920191909152509295949360208101935035915050600160201b8111156104e257600080fd5b8201836020820111156104f457600080fd5b803590602001918460018302840111600160201b8311171561051557600080fd5b91908080601f016020809104026020016040519081016040528093929190818152602001838380828437600092019190915250929550610f4b945050505050565b610314600480360361024081101561056d57600080fd5b810190602081018135600160201b81111561058757600080fd5b82018360208201111561059957600080fd5b803590602001918460018302840111600160201b831117156105ba57600080fd5b91908080601f016020809104026020016040519081016040528093929190818152602001838380828437600092019190915250506040805160e081810190925293969594818101949350915060079083908390808284376000920191909152505060408051808201825292959493818101939250906002908390839080828437600092019190915250506040805160c08181019092529295949381810193925090600690839083908082843760009201919091525091949392602081019250359050600160201b81111561068d57600080fd5b82018360208201111561069f57600080fd5b803590602001918460018302840111600160201b831117156106c057600080fd5b91908080601f0160208091040260200160405190810160405280939291908181526020018383808284376000920191909152509295949360208101935035915050600160201b81111561071257600080fd5b82018360208201111561072457600080fd5b803590602001918460018302840111600160201b8311171561074557600080fd5b91908080601f016020809104026020016040519081016040528093929190818152602001838380828437600092019190915250929550611259945050505050565b610314600480360361024081101561079d57600080fd5b810190602081018135600160201b8111156107b757600080fd5b8201836020820111156107c957600080fd5b803590602001918460018302840111600160201b831117156107ea57600080fd5b91908080601f016020809104026020016040519081016040528093929190818152602001838380828437600092019190915250506040805160e081810190925293969594818101949350915060079083908390808284376000920191909152505060408051808201825292959493818101939250906002908390839080828437600092019190915250506040805160c08181019092529295949381810193925090600690839083908082843760009201919091525091949392602081019250359050600160201b8111156108bd57600080fd5b8201836020820111156108cf57600080fd5b803590602001918460018302840111600160201b831117156108f057600080fd5b91908080601f0160208091040260200160405190810160405280939291908181526020018383808284376000920191909152509295949360208101935035915050600160201b81111561094257600080fd5b82018360208201111561095457600080fd5b803590602001918460018302840111600160201b8311171561097557600080fd5b91908080601f016020809104026020016040519081016040528093929190818152602001838380828437600092019190915250929550611445945050505050565b61031460048036036102408110156109cd57600080fd5b810190602081018135600160201b8111156109e757600080fd5b8201836020820111156109f957600080fd5b803590602001918460018302840111600160201b83111715610a1a57600080fd5b91908080601f016020809104026020016040519081016040528093929190818152602001838380828437600092019190915250506040805160e081810190925293969594818101949350915060079083908390808284376000920191909152505060408051808201825292959493818101939250906002908390839080828437600092019190915250506040805160c08181019092529295949381810193925090600690839083908082843760009201919091525091949392602081019250359050600160201b811115610aed57600080fd5b820183602082011115610aff57600080fd5b803590602001918460018302840111600160201b83111715610b2057600080fd5b91908080601f0160208091040260200160405190810160405280939291908181526020018383808284376000920191909152509295949360208101935035915050600160201b811115610b7257600080fd5b820183602082011115610b8457600080fd5b803590602001918460018302840111600160201b83111715610ba557600080fd5b91908080601f016020809104026020016040519081016040528093929190818152602001838380828437600092019190915250929550611722945050505050565b6040518060400160405280600d81526020016c14dd185d1a58c813585c9ad95d609a1b81525081565b825160009015610c505760405162461bcd60e51b81526004018080602001828103825260278152602001806121676027913960400191505060405180910390fd5b84516000906001811115610c6057fe5b14610c9c5760405162461bcd60e51b815260040180806020018281038252602e815260200180611db8602e913960400191505060405180910390fd5b610ca4611b9f565b610cac611bbd565b8880602001905160a0811015610cc157600080fd5b50915050604081016000816001602002015111610d0f5760405162461bcd60e51b8152600401808060200182810382526036815260200180611c216036913960400191505060405180910390fd5b6040810151610d4f5760405162461bcd60e51b8152600401808060200182810382526038815260200180611e4f6038913960400191505060405180910390fd5b815160408901516001600160a01b03908116911614610d9f5760405162461bcd60e51b81526004018080602001828103825260438152602001806121246043913960600191505060405180910390fd5b602082015160a08901516001600160a01b03908116911614610df25760405162461bcd60e51b8152600401808060200182810382526049815260200180611cc06049913960600191505060405180910390fd5b610dfa611b9f565b6040518060400160405280610e0e886118ed565b8152602001610e1c8761191a565b905290506000610e3c8860055b60200201518360005b602002015161192a565b6020890151909150811115610e825760405162461bcd60e51b8152600401808060200182810382526031815260200180611d356031913960400191505060405180910390fd5b6040830151610e99908360005b602002015161198b565b6020840151610eaa90846001610e8f565b14610efc576040805162461bcd60e51b815260206004820152601f60248201527f616e7945524331313535466f7245524332303a2077726f6e6720726174696f00604482015290519081900360640190fd5b610f1a878b600160200201518c60045b6020020151865186516119e4565b610f3d868b600460200201518c60015b60200201518560015b6020020151611a63565b9a9950505050505050505050565b825160009015610f8c5760405162461bcd60e51b81526004018080602001828103825260278152602001806120fd6027913960400191505060405180910390fd5b84516000906001811115610f9c57fe5b14610fd85760405162461bcd60e51b815260040180806020018281038252602e815260200180611f0d602e913960400191505060405180910390fd5b610fe0611b9f565b610fe8611bbd565b8880602001905160a0811015610ffd57600080fd5b5091505060408101600081600160200201511161104b5760405162461bcd60e51b8152600401808060200182810382526036815260200180611c216036913960400191505060405180910390fd5b604081015161108b5760405162461bcd60e51b8152600401808060200182810382526038815260200180611e4f6038913960400191505060405180910390fd5b815160408901516001600160a01b039081169116146110db5760405162461bcd60e51b815260040180806020018281038252604281526020018061201a6042913960600191505060405180910390fd5b602082015160a08901516001600160a01b0390811691161461112e5760405162461bcd60e51b815260040180806020018281038252604a8152602001806121c3604a913960600191505060405180910390fd5b611136611b9f565b604051806040016040528061114a876118ed565b81526020016111588861191a565b9052905060006111718860056020020151836001610e32565b60208901519091508111156111b75760405162461bcd60e51b815260040180806020018281038252603181526020018061207d6031913960400191505060405180910390fd5b6111cb8360025b6020020151836001610e8f565b6111df8460015b6020020151846000610e8f565b14611231576040805162461bcd60e51b815260206004820152601f60248201527f616e794552433230466f72455243313135353a2077726f6e6720726174696f00604482015290519081900360640190fd5b611245868b600460200201518c6001610f0c565b610f3d878b600160200201518c6004610f2a565b82516000901561129a5760405162461bcd60e51b8152600401808060200182810382526023815260200180611ff76023913960400191505060405180910390fd5b845160009060018111156112aa57fe5b146112e65760405162461bcd60e51b815260040180806020018281038252602a815260200180611c57602a913960400191505060405180910390fd5b6112ee611b9f565b6112f6611b9f565b88806020019051608081101561130b57600080fd5b509150506040810160008160016020020151116113595760405162461bcd60e51b8152600401808060200182810382526035815260200180611e1a6035913960400191505060405180910390fd5b815160408901516001600160a01b039081169116146113a95760405162461bcd60e51b815260040180806020018281038252603f815260200180611c81603f913960400191505060405180910390fd5b602082015160a08901516001600160a01b039081169116146113fc5760405162461bcd60e51b8152600401808060200182810382526045815260200180611f3b6045913960600191505060405180910390fd5b6114198489600460200201518a60015b6020020151846000610f33565b6114368589600160200201518a60045b6020020151846001610f33565b50600198975050505050505050565b8251600090156114865760405162461bcd60e51b81526004018080602001828103825260258152602001806120d86025913960400191505060405180910390fd5b8451600090600181111561149657fe5b146114d25760405162461bcd60e51b815260040180806020018281038252602c815260200180611d09602c913960400191505060405180910390fd5b6114da611b9f565b6114e2611b9f565b8880602001905160808110156114f757600080fd5b50604081018051919350915061153e5760405162461bcd60e51b8152600401808060200182810382526034815260200180611de66034913960400191505060405180910390fd5b602081015161157e5760405162461bcd60e51b8152600401808060200182810382526036815260200180611fc16036913960400191505060405180910390fd5b815160408901516001600160a01b039081169116146115ce5760405162461bcd60e51b8152600401808060200182810382526041815260200180611f806041913960600191505060405180910390fd5b602082015160a08901516001600160a01b039081169116146116215760405162461bcd60e51b8152600401808060200182810382526047815260200180611ec66047913960600191505060405180910390fd5b611629611b9f565b604051806040016040528061163d8861191a565b815260200161164b8761191a565b90529050600061165c886005610e29565b60208901519091508111156116a25760405162461bcd60e51b815260040180806020018281038252602f815260200180611d66602f913960400191505060405180910390fd5b6116ad8360016111be565b6116b88460006111d2565b1461170a576040805162461bcd60e51b815260206004820152601d60248201527f616e794552433230466f7245524332303a2077726f6e6720726174696f000000604482015290519081900360640190fd5b60208a015160808b0151610f1a918991856000610f33565b8251600090156117635760405162461bcd60e51b8152600401808060200182810382526023815260200180611d956023913960400191505060405180910390fd5b8451600090600181111561177357fe5b146117af5760405162461bcd60e51b815260040180806020018281038252602a8152602001806120ae602a913960400191505060405180910390fd5b6117b7611b9f565b6117bf611b9f565b8880602001905160808110156117d457600080fd5b509150506040810160008160016020020151116118225760405162461bcd60e51b815260040180806020018281038252603581526020018061218e6035913960400191505060405180910390fd5b815160408901516001600160a01b039081169116146118725760405162461bcd60e51b815260040180806020018281038252603f815260200180611e87603f913960400191505060405180910390fd5b602082015160a08901516001600160a01b039081169116146118c55760405162461bcd60e51b8152600401808060200182810382526045815260200180611bdc6045913960600191505060405180910390fd5b6118d98589600160200201518a600461140c565b6114368489600460200201518a6001611429565b6000806118fd8360646020611acc565b806020019051602081101561191157600080fd5b50519392505050565b6000806118fd8360446020611acc565b600082820183811015611982576040805162461bcd60e51b815260206004820152601b60248201527a536166654d6174683a206164646974696f6e206f766572666c6f7760281b604482015290519081900360640190fd5b90505b92915050565b60008261199a57506000611985565b828202828482816119a757fe5b04146119825760405162461bcd60e51b815260040180806020018281038252602181526020018061205c6021913960400191505060405180910390fd5b604080516001600160a01b03808716602483015285166044820152606481018490526084810183905260a060a4820152600060c4820152815180820360e40181526101049091019091526020810180516001600160e01b0316637921219560e11b179052611a53908690611b3b565b611a5c57600080fd5b5050505050565b604080516001600160a01b0380861660248301528416604482015260648082018490528251808303909101815260849091019091526020810180516001600160e01b03166323b872dd60e01b179052611abd908590611b3b565b611ac657600080fd5b50505050565b60608082158015611ae857604051915060208201604052611b32565b6040519150601f8416801560200281840101858101878315602002848b0101015b81831015611b21578051835260209283019201611b09565b5050858452601f01601f1916604052505b50949350505050565b815181516000916001918114808314611b575760009250611b95565b600160208701838101602088015b600284838510011415611b90578051835114611b845760009650600093505b60209283019201611b65565b505050505b5090949350505050565b60405180604001604052806002906020820280368337509192915050565b6040518060600160405280600390602082028036833750919291505056fe455243373231466f7245524332303a20636f756e74657263616c6c20746172676574206d75737420657175616c2061646472657373206f6620746f6b656e20746f20676574616e794552433230466f72455243313135353a206e756d657261746f72206d757374206265206c6172676572207468616e207a65726f4552433230466f724552433732313a2063616c6c206d7573742062652061206469726563742063616c6c4552433230466f724552433732313a2063616c6c20746172676574206d75737420657175616c2061646472657373206f6620746f6b656e20746f2067697665616e7945524331313535466f7245524332303a20636f756e74657263616c6c20746172676574206d75737420657175616c2061646472657373206f6620746f6b656e20746f20676574616e794552433230466f7245524332303a2063616c6c206d7573742062652061206469726563742063616c6c616e7945524331313535466f7245524332303a206e65772066696c6c2065786365656473206d6178696d756d2066696c6c616e794552433230466f7245524332303a206e65772066696c6c2065786365656473206d6178696d756d2066696c6c455243373231466f7245524332303a205a65726f2076616c7565207265717569726564616e7945524331313535466f7245524332303a2063616c6c206d7573742062652061206469726563742063616c6c616e794552433230466f7245524332303a206e756d657261746f72206d757374206265206c6172676572207468616e207a65726f4552433230466f724552433732313a20455243373231207072696365206d757374206265206c6172676572207468616e207a65726f616e794552433230466f72455243313135353a2064656e6f6d696e61746f72206d757374206265206c6172676572207468616e207a65726f455243373231466f7245524332303a2063616c6c20746172676574206d75737420657175616c2061646472657373206f6620746f6b656e20746f2067697665616e794552433230466f7245524332303a20636f756e74657263616c6c20746172676574206d75737420657175616c2061646472657373206f6620746f6b656e20746f20676574616e794552433230466f72455243313135353a2063616c6c206d7573742062652061206469726563742063616c6c4552433230466f724552433732313a20636f756e74657263616c6c20746172676574206d75737420657175616c2061646472657373206f6620746f6b656e20746f20676574616e794552433230466f7245524332303a2063616c6c20746172676574206d75737420657175616c2061646472657373206f6620746f6b656e20746f2067697665616e794552433230466f7245524332303a2064656e6f6d696e61746f72206d757374206265206c6172676572207468616e207a65726f4552433230466f724552433732313a205a65726f2076616c7565207265717569726564616e794552433230466f72455243313135353a2063616c6c20746172676574206d75737420657175616c2061646472657373206f6620746f6b656e20746f20676574536166654d6174683a206d756c7469706c69636174696f6e206f766572666c6f77616e794552433230466f72455243313135353a206e65772066696c6c2065786365656473206d6178696d756d2066696c6c455243373231466f7245524332303a2063616c6c206d7573742062652061206469726563742063616c6c616e794552433230466f7245524332303a205a65726f2076616c7565207265717569726564616e794552433230466f72455243313135353a205a65726f2076616c7565207265717569726564616e7945524331313535466f7245524332303a2063616c6c20746172676574206d75737420657175616c2061646472657373206f6620746f6b656e20746f2067697665616e7945524331313535466f7245524332303a205a65726f2076616c7565207265717569726564455243373231466f7245524332303a20455243373231207072696365206d757374206265206c6172676572207468616e207a65726f616e794552433230466f72455243313135353a20636f756e74657263616c6c20746172676574206d75737420657175616c2061646472657373206f6620746f6b656e20746f2067697665a264697066735822122099201b09de615556ef25a48dd54ed2b4f4f128acf4d946b309e800253919f3c264736f6c63430007050033",
  "devdoc": {
    "author": "Wyvern Protocol Developers",
    "kind": "dev",
    "methods": {},
    "title": "StaticMarket",
    "version": 1
  },
  "userdoc": {
    "kind": "user",
    "methods": {},
    "version": 1
  },
  "storageLayout": {
    "storage": [],
    "types": null
  }
}