{
  "address": "0x6c1ee0Cd8d888CDE4e3c7ee7e8Ed693Bc91d8dca",
  "abi": [
    {
      "inputs": [
        {
          "internalType": "address",
          "name": "atomicizerAddress",
          "type": "address"
        }
      ],
      "stateMutability": "nonpayable",
      "type": "constructor"
    },
    {
      "inputs": [
        {
          "internalType": "bytes",
          "name": "extra",
          "type": "bytes"
        },
        {
          "internalType": "address[7]",
          "name": "addresses",
          "type": "address[7]"
        },
        {
          "internalType": "enum AuthenticatedProxy.HowToCall[2]",
          "name": "howToCalls",
          "type": "uint8[2]"
        },
        {
          "internalType": "uint256[6]",
          "name": "uints",
          "type": "uint256[6]"
        },
        {
          "internalType": "bytes",
          "name": "data",
          "type": "bytes"
        },
        {
          "internalType": "bytes",
          "name": "counterdata",
          "type": "bytes"
        }
      ],
      "name": "and",
      "outputs": [],
      "stateMutability": "view",
      "type": "function"
    },
    {
      "inputs": [
        {
          "internalType": "bytes",
          "name": "",
          "type": "bytes"
        },
        {
          "internalType": "address[7]",
          "name": "",
          "type": "address[7]"
        },
        {
          "internalType": "enum AuthenticatedProxy.HowToCall[2]",
          "name": "",
          "type": "uint8[2]"
        },
        {
          "internalType": "uint256[6]",
          "name": "",
          "type": "uint256[6]"
        },
        {
          "internalType": "bytes",
          "name": "",
          "type": "bytes"
        },
        {
          "internalType": "bytes",
          "name": "",
          "type": "bytes"
        }
      ],
      "name": "any",
      "outputs": [
        {
          "internalType": "uint256",
          "name": "",
          "type": "uint256"
        }
      ],
      "stateMutability": "pure",
      "type": "function"
    },
    {
      "inputs": [
        {
          "internalType": "bytes",
          "name": "",
          "type": "bytes"
        },
        {
          "internalType": "address[7]",
          "name": "",
          "type": "address[7]"
        },
        {
          "internalType": "enum AuthenticatedProxy.HowToCall[2]",
          "name": "",
          "type": "uint8[2]"
        },
        {
          "internalType": "uint256[6]",
          "name": "uints",
          "type": "uint256[6]"
        },
        {
          "internalType": "bytes",
          "name": "",
          "type": "bytes"
        },
        {
          "internalType": "bytes",
          "name": "",
          "type": "bytes"
        }
      ],
      "name": "anyAddOne",
      "outputs": [
        {
          "internalType": "uint256",
          "name": "",
          "type": "uint256"
        }
      ],
      "stateMutability": "pure",
      "type": "function"
    },
    {
      "inputs": [
        {
          "internalType": "bytes",
          "name": "",
          "type": "bytes"
        },
        {
          "internalType": "address[7]",
          "name": "",
          "type": "address[7]"
        },
        {
          "internalType": "enum AuthenticatedProxy.HowToCall[2]",
          "name": "",
          "type": "uint8[2]"
        },
        {
          "internalType": "uint256[6]",
          "name": "",
          "type": "uint256[6]"
        },
        {
          "internalType": "bytes",
          "name": "",
          "type": "bytes"
        },
        {
          "internalType": "bytes",
          "name": "",
          "type": "bytes"
        }
      ],
      "name": "anyNoFill",
      "outputs": [
        {
          "internalType": "uint256",
          "name": "",
          "type": "uint256"
        }
      ],
      "stateMutability": "pure",
      "type": "function"
    },
    {
      "inputs": [
        {
          "internalType": "bytes",
          "name": "",
          "type": "bytes"
        },
        {
          "internalType": "address[7]",
          "name": "",
          "type": "address[7]"
        },
        {
          "internalType": "enum AuthenticatedProxy.HowToCall",
          "name": "",
          "type": "uint8"
        },
        {
          "internalType": "uint256[6]",
          "name": "",
          "type": "uint256[6]"
        },
        {
          "internalType": "bytes",
          "name": "",
          "type": "bytes"
        }
      ],
      "name": "anySingle",
      "outputs": [],
      "stateMutability": "pure",
      "type": "function"
    },
    {
      "inputs": [],
      "name": "atomicizer",
      "outputs": [
        {
          "internalType": "address",
          "name": "",
          "type": "address"
        }
      ],
      "stateMutability": "view",
      "type": "function"
    },
    {
      "inputs": [
        {
          "internalType": "bytes",
          "name": "extra",
          "type": "bytes"
        },
        {
          "internalType": "address[7]",
          "name": "addresses",
          "type": "address[7]"
        },
        {
          "internalType": "enum AuthenticatedProxy.HowToCall[2]",
          "name": "howToCalls",
          "type": "uint8[2]"
        },
        {
          "internalType": "uint256[6]",
          "name": "uints",
          "type": "uint256[6]"
        },
        {
          "internalType": "bytes",
          "name": "cdata",
          "type": "bytes"
        },
        {
          "internalType": "bytes",
          "name": "",
          "type": "bytes"
        }
      ],
      "name": "dumbSequenceExact",
      "outputs": [
        {
          "internalType": "uint256",
          "name": "",
          "type": "uint256"
        }
      ],
      "stateMutability": "view",
      "type": "function"
    },
    {
      "inputs": [],
      "name": "name",
      "outputs": [
        {
          "internalType": "string",
          "name": "",
          "type": "string"
        }
      ],
      "stateMutability": "view",
      "type": "function"
    },
    {
      "inputs": [
        {
          "internalType": "bytes",
          "name": "extra",
          "type": "bytes"
        },
        {
          "internalType": "address[7]",
          "name": "addresses",
          "type": "address[7]"
        },
        {
          "internalType": "enum AuthenticatedProxy.HowToCall[2]",
          "name": "howToCalls",
          "type": "uint8[2]"
        },
        {
          "internalType": "uint256[6]",
          "name": "uints",
          "type": "uint256[6]"
        },
        {
          "internalType": "bytes",
          "name": "data",
          "type": "bytes"
        },
        {
          "internalType": "bytes",
          "name": "counterdata",
          "type": "bytes"
        }
      ],
      "name": "or",
      "outputs": [],
      "stateMutability": "view",
      "type": "function"
    },
    {
      "inputs": [
        {
          "internalType": "bytes",
          "name": "extra",
          "type": "bytes"
        },
        {
          "internalType": "address[7]",
          "name": "addresses",
          "type": "address[7]"
        },
        {
          "internalType": "enum AuthenticatedProxy.HowToCall",
          "name": "howToCall",
          "type": "uint8"
        },
        {
          "internalType": "uint256[6]",
          "name": "uints",
          "type": "uint256[6]"
        },
        {
          "internalType": "bytes",
          "name": "cdata",
          "type": "bytes"
        }
      ],
      "name": "sequenceAnyAfter",
      "outputs": [],
      "stateMutability": "view",
      "type": "function"
    },
    {
      "inputs": [
        {
          "internalType": "bytes",
          "name": "extra",
          "type": "bytes"
        },
        {
          "internalType": "address[7]",
          "name": "addresses",
          "type": "address[7]"
        },
        {
          "internalType": "enum AuthenticatedProxy.HowToCall",
          "name": "howToCall",
          "type": "uint8"
        },
        {
          "internalType": "uint256[6]",
          "name": "uints",
          "type": "uint256[6]"
        },
        {
          "internalType": "bytes",
          "name": "cdata",
          "type": "bytes"
        }
      ],
      "name": "sequenceExact",
      "outputs": [],
      "stateMutability": "view",
      "type": "function"
    },
    {
      "inputs": [
        {
          "internalType": "bytes",
          "name": "extra",
          "type": "bytes"
        },
        {
          "internalType": "address[7]",
          "name": "addresses",
          "type": "address[7]"
        },
        {
          "internalType": "enum AuthenticatedProxy.HowToCall[2]",
          "name": "howToCalls",
          "type": "uint8[2]"
        },
        {
          "internalType": "uint256[6]",
          "name": "uints",
          "type": "uint256[6]"
        },
        {
          "internalType": "bytes",
          "name": "data",
          "type": "bytes"
        },
        {
          "internalType": "bytes",
          "name": "counterdata",
          "type": "bytes"
        }
      ],
      "name": "split",
      "outputs": [
        {
          "internalType": "uint256",
          "name": "",
          "type": "uint256"
        }
      ],
      "stateMutability": "view",
      "type": "function"
    },
    {
      "inputs": [
        {
          "internalType": "bytes",
          "name": "extra",
          "type": "bytes"
        },
        {
          "internalType": "address[7]",
          "name": "addresses",
          "type": "address[7]"
        },
        {
          "internalType": "enum AuthenticatedProxy.HowToCall[2]",
          "name": "howToCalls",
          "type": "uint8[2]"
        },
        {
          "internalType": "uint256[6]",
          "name": "uints",
          "type": "uint256[6]"
        },
        {
          "internalType": "bytes",
          "name": "data",
          "type": "bytes"
        },
        {
          "internalType": "bytes",
          "name": "counterdata",
          "type": "bytes"
        }
      ],
      "name": "splitAddOne",
      "outputs": [
        {
          "internalType": "uint256",
          "name": "",
          "type": "uint256"
        }
      ],
      "stateMutability": "view",
      "type": "function"
    },
    {
      "inputs": [
        {
          "internalType": "bytes",
          "name": "extra",
          "type": "bytes"
        },
        {
          "internalType": "address[7]",
          "name": "addresses",
          "type": "address[7]"
        },
        {
          "internalType": "enum AuthenticatedProxy.HowToCall[2]",
          "name": "howToCalls",
          "type": "uint8[2]"
        },
        {
          "internalType": "uint256[6]",
          "name": "uints",
          "type": "uint256[6]"
        },
        {
          "internalType": "bytes",
          "name": "data",
          "type": "bytes"
        },
        {
          "internalType": "bytes",
          "name": "counterdata",
          "type": "bytes"
        }
      ],
      "name": "swapExact",
      "outputs": [
        {
          "internalType": "uint256",
          "name": "",
          "type": "uint256"
        }
      ],
      "stateMutability": "pure",
      "type": "function"
    },
    {
      "inputs": [
        {
          "internalType": "bytes",
          "name": "extra",
          "type": "bytes"
        },
        {
          "internalType": "address[7]",
          "name": "addresses",
          "type": "address[7]"
        },
        {
          "internalType": "enum AuthenticatedProxy.HowToCall[2]",
          "name": "howToCalls",
          "type": "uint8[2]"
        },
        {
          "internalType": "uint256[6]",
          "name": "uints",
          "type": "uint256[6]"
        },
        {
          "internalType": "bytes",
          "name": "data",
          "type": "bytes"
        },
        {
          "internalType": "bytes",
          "name": "counterdata",
          "type": "bytes"
        }
      ],
      "name": "swapForever",
      "outputs": [
        {
          "internalType": "uint256",
          "name": "",
          "type": "uint256"
        }
      ],
      "stateMutability": "pure",
      "type": "function"
    },
    {
      "inputs": [
        {
          "internalType": "bytes",
          "name": "extra",
          "type": "bytes"
        },
        {
          "internalType": "address[7]",
          "name": "addresses",
          "type": "address[7]"
        },
        {
          "internalType": "enum AuthenticatedProxy.HowToCall[2]",
          "name": "howToCalls",
          "type": "uint8[2]"
        },
        {
          "internalType": "uint256[6]",
          "name": "uints",
          "type": "uint256[6]"
        },
        {
          "internalType": "bytes",
          "name": "data",
          "type": "bytes"
        },
        {
          "internalType": "bytes",
          "name": "counterdata",
          "type": "bytes"
        }
      ],
      "name": "swapOneForOneERC1155",
      "outputs": [
        {
          "internalType": "uint256",
          "name": "",
          "type": "uint256"
        }
      ],
      "stateMutability": "pure",
      "type": "function"
    },
    {
      "inputs": [
        {
          "internalType": "bytes",
          "name": "extra",
          "type": "bytes"
        },
        {
          "internalType": "address[7]",
          "name": "addresses",
          "type": "address[7]"
        },
        {
          "internalType": "enum AuthenticatedProxy.HowToCall[2]",
          "name": "howToCalls",
          "type": "uint8[2]"
        },
        {
          "internalType": "uint256[6]",
          "name": "uints",
          "type": "uint256[6]"
        },
        {
          "internalType": "bytes",
          "name": "data",
          "type": "bytes"
        },
        {
          "internalType": "bytes",
          "name": "counterdata",
          "type": "bytes"
        }
      ],
      "name": "swapOneForOneERC1155Decoding",
      "outputs": [
        {
          "internalType": "uint256",
          "name": "",
          "type": "uint256"
        }
      ],
      "stateMutability": "pure",
      "type": "function"
    },
    {
      "inputs": [
        {
          "internalType": "bytes",
          "name": "extra",
          "type": "bytes"
        },
        {
          "internalType": "address[7]",
          "name": "addresses",
          "type": "address[7]"
        },
        {
          "internalType": "enum AuthenticatedProxy.HowToCall[2]",
          "name": "howToCalls",
          "type": "uint8[2]"
        },
        {
          "internalType": "uint256[6]",
          "name": "uints",
          "type": "uint256[6]"
        },
        {
          "internalType": "bytes",
          "name": "data",
          "type": "bytes"
        },
        {
          "internalType": "bytes",
          "name": "counterdata",
          "type": "bytes"
        }
      ],
      "name": "swapOneForOneERC721",
      "outputs": [
        {
          "internalType": "uint256",
          "name": "",
          "type": "uint256"
        }
      ],
      "stateMutability": "pure",
      "type": "function"
    },
    {
      "inputs": [
        {
          "internalType": "bytes",
          "name": "extra",
          "type": "bytes"
        },
        {
          "internalType": "address[7]",
          "name": "addresses",
          "type": "address[7]"
        },
        {
          "internalType": "enum AuthenticatedProxy.HowToCall[2]",
          "name": "howToCalls",
          "type": "uint8[2]"
        },
        {
          "internalType": "uint256[6]",
          "name": "uints",
          "type": "uint256[6]"
        },
        {
          "internalType": "bytes",
          "name": "data",
          "type": "bytes"
        },
        {
          "internalType": "bytes",
          "name": "counterdata",
          "type": "bytes"
        }
      ],
      "name": "swapOneForOneERC721Decoding",
      "outputs": [
        {
          "internalType": "uint256",
          "name": "",
          "type": "uint256"
        }
      ],
      "stateMutability": "pure",
      "type": "function"
    },
    {
      "inputs": [],
      "name": "test",
      "outputs": [],
      "stateMutability": "pure",
      "type": "function"
    },
    {
      "inputs": [
        {
          "internalType": "bytes",
          "name": "extra",
          "type": "bytes"
        },
        {
          "internalType": "address[7]",
          "name": "addresses",
          "type": "address[7]"
        },
        {
          "internalType": "enum AuthenticatedProxy.HowToCall",
          "name": "howToCall",
          "type": "uint8"
        },
        {
          "internalType": "uint256[6]",
          "name": "",
          "type": "uint256[6]"
        },
        {
          "internalType": "bytes",
          "name": "data",
          "type": "bytes"
        }
      ],
      "name": "transferERC1155Exact",
      "outputs": [],
      "stateMutability": "pure",
      "type": "function"
    },
    {
      "inputs": [
        {
          "internalType": "bytes",
          "name": "extra",
          "type": "bytes"
        },
        {
          "internalType": "address[7]",
          "name": "addresses",
          "type": "address[7]"
        },
        {
          "internalType": "enum AuthenticatedProxy.HowToCall",
          "name": "howToCall",
          "type": "uint8"
        },
        {
          "internalType": "uint256[6]",
          "name": "",
          "type": "uint256[6]"
        },
        {
          "internalType": "bytes",
          "name": "data",
          "type": "bytes"
        }
      ],
      "name": "transferERC20Exact",
      "outputs": [],
      "stateMutability": "pure",
      "type": "function"
    },
    {
      "inputs": [
        {
          "internalType": "bytes",
          "name": "extra",
          "type": "bytes"
        },
        {
          "internalType": "address[7]",
          "name": "addresses",
          "type": "address[7]"
        },
        {
          "internalType": "enum AuthenticatedProxy.HowToCall",
          "name": "howToCall",
          "type": "uint8"
        },
        {
          "internalType": "uint256[6]",
          "name": "",
          "type": "uint256[6]"
        },
        {
          "internalType": "bytes",
          "name": "data",
          "type": "bytes"
        }
      ],
      "name": "transferERC721Exact",
      "outputs": [],
      "stateMutability": "pure",
      "type": "function"
    }
  ],
  "transactionHash": "0xc7956a077a2748bbe3f7d8ee07d778dc151167d88be92fb92d101486c571ccea",
  "args": [
    "0x3aE079e435A3efA80112DD2FA62F7DC7ab174763"
  ],
  "numDeployments": 1,
  "solcInputHash": "0c7a43037bc973b90378f1240c2c1e62",
  "bytecode": "0x608060405234801561001057600080fd5b506040516200571c3803806200571c8339818101604052602081101561003557600080fd5b5051600080546001600160a01b039092166001600160a01b03199092169190911790556156b480620000686000396000f3fe608060405234801561001057600080fd5b506004361061011d5760003560e01c8063025b6d341461012257806306fdde03146103645780630d3b91d4146103e157806320e9a8181461040557806323f62d9c14610635578063265a87e7146108655780632e0b69db146109f75780634563928f14610b875780634e9413f914610db75780637557ef9814610fe7578063837b54ad14611217578063883ee43014611447578063a09858da14611677578063ac5cc03f146118a7578063b67bf13414611a37578063b6c8184b14610865578063ba35274314611bc7578063dcbcb5d914611df7578063ddf98cc214612027578063e1beb48414612257578063ed94fc6614612487578063f6280c8614612617578063f8a8fd6d14612847575b600080fd5b610352600480360361024081101561013957600080fd5b810190602081018135600160201b81111561015357600080fd5b82018360208201111561016557600080fd5b803590602001918460018302840111600160201b8311171561018657600080fd5b91908080601f016020809104026020016040519081016040528093929190818152602001838380828437600092019190915250506040805160e081810190925293969594818101949350915060079083908390808284376000920191909152505060408051808201825292959493818101939250906002908390839080828437600092019190915250506040805160c08181019092529295949381810193925090600690839083908082843760009201919091525091949392602081019250359050600160201b81111561025957600080fd5b82018360208201111561026b57600080fd5b803590602001918460018302840111600160201b8311171561028c57600080fd5b91908080601f0160208091040260200160405190810160405280939291908181526020018383808284376000920191909152509295949360208101935035915050600160201b8111156102de57600080fd5b8201836020820111156102f057600080fd5b803590602001918460018302840111600160201b8311171561031157600080fd5b91908080601f01602080910402602001604051908101604052809392919081815260200183838082843760009201919091525092955061284f945050505050565b60408051918252519081900360200190f35b61036c612871565b6040805160208082528351818301528351919283929083019185019080838360005b838110156103a657818101518382015260200161038e565b50505050905090810190601f1680156103d35780820380516001836020036101000a031916815260200191505b509250505060405180910390f35b6103e961289a565b604080516001600160a01b039092168252519081900360200190f35b610352600480360361024081101561041c57600080fd5b810190602081018135600160201b81111561043657600080fd5b82018360208201111561044857600080fd5b803590602001918460018302840111600160201b8311171561046957600080fd5b91908080601f016020809104026020016040519081016040528093929190818152602001838380828437600092019190915250506040805160e081810190925293969594818101949350915060079083908390808284376000920191909152505060408051808201825292959493818101939250906002908390839080828437600092019190915250506040805160c08181019092529295949381810193925090600690839083908082843760009201919091525091949392602081019250359050600160201b81111561053c57600080fd5b82018360208201111561054e57600080fd5b803590602001918460018302840111600160201b8311171561056f57600080fd5b91908080601f0160208091040260200160405190810160405280939291908181526020018383808284376000920191909152509295949360208101935035915050600160201b8111156105c157600080fd5b8201836020820111156105d357600080fd5b803590602001918460018302840111600160201b831117156105f457600080fd5b91908080601f0160208091040260200160405190810160405280939291908181526020018383808284376000920191909152509295506128a9945050505050565b610352600480360361024081101561064c57600080fd5b810190602081018135600160201b81111561066657600080fd5b82018360208201111561067857600080fd5b803590602001918460018302840111600160201b8311171561069957600080fd5b91908080601f016020809104026020016040519081016040528093929190818152602001838380828437600092019190915250506040805160e081810190925293969594818101949350915060079083908390808284376000920191909152505060408051808201825292959493818101939250906002908390839080828437600092019190915250506040805160c08181019092529295949381810193925090600690839083908082843760009201919091525091949392602081019250359050600160201b81111561076c57600080fd5b82018360208201111561077e57600080fd5b803590602001918460018302840111600160201b8311171561079f57600080fd5b91908080601f0160208091040260200160405190810160405280939291908181526020018383808284376000920191909152509295949360208101935035915050600160201b8111156107f157600080fd5b82018360208201111561080357600080fd5b803590602001918460018302840111600160201b8311171561082457600080fd5b91908080601f016020809104026020016040519081016040528093929190818152602001838380828437600092019190915250929550612cf9945050505050565b6109f5600480360361020081101561087c57600080fd5b810190602081018135600160201b81111561089657600080fd5b8201836020820111156108a857600080fd5b803590602001918460018302840111600160201b831117156108c957600080fd5b91908080601f016020809104026020016040519081016040528093929190818152602001838380828437600092019190915250506040805160e08181019092529396959481810194935091506007908390839080828437600092019190915250506040805160c0818101909252929560ff853516959094909360e08201935091602090910190600690839083908082843760009201919091525091949392602081019250359050600160201b81111561098157600080fd5b82018360208201111561099357600080fd5b803590602001918460018302840111600160201b831117156109b457600080fd5b91908080601f016020809104026020016040519081016040528093929190818152602001838380828437600092019190915250929550612e5b945050505050565b005b6109f56004803603610200811015610a0e57600080fd5b810190602081018135600160201b811115610a2857600080fd5b820183602082011115610a3a57600080fd5b803590602001918460018302840111600160201b83111715610a5b57600080fd5b91908080601f016020809104026020016040519081016040528093929190818152602001838380828437600092019190915250506040805160e08181019092529396959481810194935091506007908390839080828437600092019190915250506040805160c0818101909252929560ff853516959094909360e08201935091602090910190600690839083908082843760009201919091525091949392602081019250359050600160201b811115610b1357600080fd5b820183602082011115610b2557600080fd5b803590602001918460018302840111600160201b83111715610b4657600080fd5b91908080601f016020809104026020016040519081016040528093929190818152602001838380828437600092019190915250929550612f35945050505050565b6103526004803603610240811015610b9e57600080fd5b810190602081018135600160201b811115610bb857600080fd5b820183602082011115610bca57600080fd5b803590602001918460018302840111600160201b83111715610beb57600080fd5b91908080601f016020809104026020016040519081016040528093929190818152602001838380828437600092019190915250506040805160e081810190925293969594818101949350915060079083908390808284376000920191909152505060408051808201825292959493818101939250906002908390839080828437600092019190915250506040805160c08181019092529295949381810193925090600690839083908082843760009201919091525091949392602081019250359050600160201b811115610cbe57600080fd5b820183602082011115610cd057600080fd5b803590602001918460018302840111600160201b83111715610cf157600080fd5b91908080601f0160208091040260200160405190810160405280939291908181526020018383808284376000920191909152509295949360208101935035915050600160201b811115610d4357600080fd5b820183602082011115610d5557600080fd5b803590602001918460018302840111600160201b83111715610d7657600080fd5b91908080601f01602080910402602001604051908101604052809392919081815260200183838082843760009201919091525092955061302f945050505050565b6109f56004803603610240811015610dce57600080fd5b810190602081018135600160201b811115610de857600080fd5b820183602082011115610dfa57600080fd5b803590602001918460018302840111600160201b83111715610e1b57600080fd5b91908080601f016020809104026020016040519081016040528093929190818152602001838380828437600092019190915250506040805160e081810190925293969594818101949350915060079083908390808284376000920191909152505060408051808201825292959493818101939250906002908390839080828437600092019190915250506040805160c08181019092529295949381810193925090600690839083908082843760009201919091525091949392602081019250359050600160201b811115610eee57600080fd5b820183602082011115610f0057600080fd5b803590602001918460018302840111600160201b83111715610f2157600080fd5b91908080601f0160208091040260200160405190810160405280939291908181526020018383808284376000920191909152509295949360208101935035915050600160201b811115610f7357600080fd5b820183602082011115610f8557600080fd5b803590602001918460018302840111600160201b83111715610fa657600080fd5b91908080601f01602080910402602001604051908101604052809392919081815260200183838082843760009201919091525092955061330d945050505050565b6103526004803603610240811015610ffe57600080fd5b810190602081018135600160201b81111561101857600080fd5b82018360208201111561102a57600080fd5b803590602001918460018302840111600160201b8311171561104b57600080fd5b91908080601f016020809104026020016040519081016040528093929190818152602001838380828437600092019190915250506040805160e081810190925293969594818101949350915060079083908390808284376000920191909152505060408051808201825292959493818101939250906002908390839080828437600092019190915250506040805160c08181019092529295949381810193925090600690839083908082843760009201919091525091949392602081019250359050600160201b81111561111e57600080fd5b82018360208201111561113057600080fd5b803590602001918460018302840111600160201b8311171561115157600080fd5b91908080601f0160208091040260200160405190810160405280939291908181526020018383808284376000920191909152509295949360208101935035915050600160201b8111156111a357600080fd5b8201836020820111156111b557600080fd5b803590602001918460018302840111600160201b831117156111d657600080fd5b91908080601f016020809104026020016040519081016040528093929190818152602001838380828437600092019190915250929550613893945050505050565b610352600480360361024081101561122e57600080fd5b810190602081018135600160201b81111561124857600080fd5b82018360208201111561125a57600080fd5b803590602001918460018302840111600160201b8311171561127b57600080fd5b91908080601f016020809104026020016040519081016040528093929190818152602001838380828437600092019190915250506040805160e081810190925293969594818101949350915060079083908390808284376000920191909152505060408051808201825292959493818101939250906002908390839080828437600092019190915250506040805160c08181019092529295949381810193925090600690839083908082843760009201919091525091949392602081019250359050600160201b81111561134e57600080fd5b82018360208201111561136057600080fd5b803590602001918460018302840111600160201b8311171561138157600080fd5b91908080601f0160208091040260200160405190810160405280939291908181526020018383808284376000920191909152509295949360208101935035915050600160201b8111156113d357600080fd5b8201836020820111156113e557600080fd5b803590602001918460018302840111600160201b8311171561140657600080fd5b91908080601f016020809104026020016040519081016040528093929190818152602001838380828437600092019190915250929550613a01945050505050565b610352600480360361024081101561145e57600080fd5b810190602081018135600160201b81111561147857600080fd5b82018360208201111561148a57600080fd5b803590602001918460018302840111600160201b831117156114ab57600080fd5b91908080601f016020809104026020016040519081016040528093929190818152602001838380828437600092019190915250506040805160e081810190925293969594818101949350915060079083908390808284376000920191909152505060408051808201825292959493818101939250906002908390839080828437600092019190915250506040805160c08181019092529295949381810193925090600690839083908082843760009201919091525091949392602081019250359050600160201b81111561157e57600080fd5b82018360208201111561159057600080fd5b803590602001918460018302840111600160201b831117156115b157600080fd5b91908080601f0160208091040260200160405190810160405280939291908181526020018383808284376000920191909152509295949360208101935035915050600160201b81111561160357600080fd5b82018360208201111561161557600080fd5b803590602001918460018302840111600160201b8311171561163657600080fd5b91908080601f016020809104026020016040519081016040528093929190818152602001838380828437600092019190915250929550613a0d945050505050565b610352600480360361024081101561168e57600080fd5b810190602081018135600160201b8111156116a857600080fd5b8201836020820111156116ba57600080fd5b803590602001918460018302840111600160201b831117156116db57600080fd5b91908080601f016020809104026020016040519081016040528093929190818152602001838380828437600092019190915250506040805160e081810190925293969594818101949350915060079083908390808284376000920191909152505060408051808201825292959493818101939250906002908390839080828437600092019190915250506040805160c08181019092529295949381810193925090600690839083908082843760009201919091525091949392602081019250359050600160201b8111156117ae57600080fd5b8201836020820111156117c057600080fd5b803590602001918460018302840111600160201b831117156117e157600080fd5b91908080601f0160208091040260200160405190810160405280939291908181526020018383808284376000920191909152509295949360208101935035915050600160201b81111561183357600080fd5b82018360208201111561184557600080fd5b803590602001918460018302840111600160201b8311171561186657600080fd5b91908080601f016020809104026020016040519081016040528093929190818152602001838380828437600092019190915250929550613d1a945050505050565b6109f560048036036102008110156118be57600080fd5b810190602081018135600160201b8111156118d857600080fd5b8201836020820111156118ea57600080fd5b803590602001918460018302840111600160201b8311171561190b57600080fd5b91908080601f016020809104026020016040519081016040528093929190818152602001838380828437600092019190915250506040805160e08181019092529396959481810194935091506007908390839080828437600092019190915250506040805160c0818101909252929560ff853516959094909360e08201935091602090910190600690839083908082843760009201919091525091949392602081019250359050600160201b8111156119c357600080fd5b8201836020820111156119d557600080fd5b803590602001918460018302840111600160201b831117156119f657600080fd5b91908080601f016020809104026020016040519081016040528093929190818152602001838380828437600092019190915250929550613d33945050505050565b6109f56004803603610200811015611a4e57600080fd5b810190602081018135600160201b811115611a6857600080fd5b820183602082011115611a7a57600080fd5b803590602001918460018302840111600160201b83111715611a9b57600080fd5b91908080601f016020809104026020016040519081016040528093929190818152602001838380828437600092019190915250506040805160e08181019092529396959481810194935091506007908390839080828437600092019190915250506040805160c0818101909252929560ff853516959094909360e08201935091602090910190600690839083908082843760009201919091525091949392602081019250359050600160201b811115611b5357600080fd5b820183602082011115611b6557600080fd5b803590602001918460018302840111600160201b83111715611b8657600080fd5b91908080601f0160208091040260200160405190810160405280939291908181526020018383808284376000920191909152509295506142b6945050505050565b6103526004803603610240811015611bde57600080fd5b810190602081018135600160201b811115611bf857600080fd5b820183602082011115611c0a57600080fd5b803590602001918460018302840111600160201b83111715611c2b57600080fd5b91908080601f016020809104026020016040519081016040528093929190818152602001838380828437600092019190915250506040805160e081810190925293969594818101949350915060079083908390808284376000920191909152505060408051808201825292959493818101939250906002908390839080828437600092019190915250506040805160c08181019092529295949381810193925090600690839083908082843760009201919091525091949392602081019250359050600160201b811115611cfe57600080fd5b820183602082011115611d1057600080fd5b803590602001918460018302840111600160201b83111715611d3157600080fd5b91908080601f0160208091040260200160405190810160405280939291908181526020018383808284376000920191909152509295949360208101935035915050600160201b811115611d8357600080fd5b820183602082011115611d9557600080fd5b803590602001918460018302840111600160201b83111715611db657600080fd5b91908080601f0160208091040260200160405190810160405280939291908181526020018383808284376000920191909152509295506142bd945050505050565b6109f56004803603610240811015611e0e57600080fd5b810190602081018135600160201b811115611e2857600080fd5b820183602082011115611e3a57600080fd5b803590602001918460018302840111600160201b83111715611e5b57600080fd5b91908080601f016020809104026020016040519081016040528093929190818152602001838380828437600092019190915250506040805160e081810190925293969594818101949350915060079083908390808284376000920191909152505060408051808201825292959493818101939250906002908390839080828437600092019190915250506040805160c08181019092529295949381810193925090600690839083908082843760009201919091525091949392602081019250359050600160201b811115611f2e57600080fd5b820183602082011115611f4057600080fd5b803590602001918460018302840111600160201b83111715611f6157600080fd5b91908080601f0160208091040260200160405190810160405280939291908181526020018383808284376000920191909152509295949360208101935035915050600160201b811115611fb357600080fd5b820183602082011115611fc557600080fd5b803590602001918460018302840111600160201b83111715611fe657600080fd5b91908080601f01602080910402602001604051908101604052809392919081815260200183838082843760009201919091525092955061444d945050505050565b610352600480360361024081101561203e57600080fd5b810190602081018135600160201b81111561205857600080fd5b82018360208201111561206a57600080fd5b803590602001918460018302840111600160201b8311171561208b57600080fd5b91908080601f016020809104026020016040519081016040528093929190818152602001838380828437600092019190915250506040805160e081810190925293969594818101949350915060079083908390808284376000920191909152505060408051808201825292959493818101939250906002908390839080828437600092019190915250506040805160c08181019092529295949381810193925090600690839083908082843760009201919091525091949392602081019250359050600160201b81111561215e57600080fd5b82018360208201111561217057600080fd5b803590602001918460018302840111600160201b8311171561219157600080fd5b91908080601f0160208091040260200160405190810160405280939291908181526020018383808284376000920191909152509295949360208101935035915050600160201b8111156121e357600080fd5b8201836020820111156121f557600080fd5b803590602001918460018302840111600160201b8311171561221657600080fd5b91908080601f016020809104026020016040519081016040528093929190818152602001838380828437600092019190915250929550614836945050505050565b610352600480360361024081101561226e57600080fd5b810190602081018135600160201b81111561228857600080fd5b82018360208201111561229a57600080fd5b803590602001918460018302840111600160201b831117156122bb57600080fd5b91908080601f016020809104026020016040519081016040528093929190818152602001838380828437600092019190915250506040805160e081810190925293969594818101949350915060079083908390808284376000920191909152505060408051808201825292959493818101939250906002908390839080828437600092019190915250506040805160c08181019092529295949381810193925090600690839083908082843760009201919091525091949392602081019250359050600160201b81111561238e57600080fd5b8201836020820111156123a057600080fd5b803590602001918460018302840111600160201b831117156123c157600080fd5b91908080601f0160208091040260200160405190810160405280939291908181526020018383808284376000920191909152509295949360208101935035915050600160201b81111561241357600080fd5b82018360208201111561242557600080fd5b803590602001918460018302840111600160201b8311171561244657600080fd5b91908080601f01602080910402602001604051908101604052809392919081815260200183838082843760009201919091525092955061484f945050505050565b6109f5600480360361020081101561249e57600080fd5b810190602081018135600160201b8111156124b857600080fd5b8201836020820111156124ca57600080fd5b803590602001918460018302840111600160201b831117156124eb57600080fd5b91908080601f016020809104026020016040519081016040528093929190818152602001838380828437600092019190915250506040805160e08181019092529396959481810194935091506007908390839080828437600092019190915250506040805160c0818101909252929560ff853516959094909360e08201935091602090910190600690839083908082843760009201919091525091949392602081019250359050600160201b8111156125a357600080fd5b8201836020820111156125b557600080fd5b803590602001918460018302840111600160201b831117156125d657600080fd5b91908080601f01602080910402602001604051908101604052809392919081815260200183838082843760009201919091525092955061485b945050505050565b610352600480360361024081101561262e57600080fd5b810190602081018135600160201b81111561264857600080fd5b82018360208201111561265a57600080fd5b803590602001918460018302840111600160201b8311171561267b57600080fd5b91908080601f016020809104026020016040519081016040528093929190818152602001838380828437600092019190915250506040805160e081810190925293969594818101949350915060079083908390808284376000920191909152505060408051808201825292959493818101939250906002908390839080828437600092019190915250506040805160c08181019092529295949381810193925090600690839083908082843760009201919091525091949392602081019250359050600160201b81111561274e57600080fd5b82018360208201111561276057600080fd5b803590602001918460018302840111600160201b8311171561278157600080fd5b91908080601f0160208091040260200160405190810160405280939291908181526020018383808284376000920191909152509295949360208101935035915050600160201b8111156127d357600080fd5b8201836020820111156127e557600080fd5b803590602001918460018302840111600160201b8311171561280657600080fd5b91908080601f016020809104026020016040519081016040528093929190818152602001838380828437600092019190915250929550614dbe945050505050565b6109f5614ff9565b60006128648787878460200201518787613d33565b5060019695505050505050565b6040518060400160405280600d81526020016c57797665726e2053746174696360981b81525081565b6000546001600160a01b031681565b60006128b361542b565b6128bb61542b565b6060808a80602001905160c08110156128d357600080fd5b608082018051604080519085019390929085019185919084600160201b8211156128fc57600080fd5b90830190602082018581111561291157600080fd5b8251600160201b81118282018810171561292a57600080fd5b82525081516020918201929091019080838360005b8381101561295757818101518382015260200161293f565b50505050905090810190601f1680156129845780820380516001836020036101000a031916815260200191505b5060405260200180516040519392919084600160201b8211156129a657600080fd5b9083019060208201858111156129bb57600080fd5b8251600160201b8111828201881017156129d457600080fd5b82525081516020918201929091019080838360005b83811015612a015781810151838201526020016129e9565b50505050905090810190601f168015612a2e5780820380516001836020036101000a031916815260200191505b506040525050509350935093509350612bd384600060028110612a4d57fe5b602002015184518b5160405186918f918e908e90602481019081906044018660e080838360005b83811015612a8c578181015183820152602001612a74565b50505050905001856001811115612a9f57fe5b81526020018460c080838360005b83811015612ac5578181015183820152602001612aad565b5050505090500180602001838103835288818151815260200191508051906020019080838360005b83811015612b05578181015183820152602001612aed565b50505050905090810190601f168015612b325780820380516001836020036101000a031916815260200191505b50838103825284518152845160209182019186019080838360005b83811015612b65578181015183820152602001612b4d565b50505050905090810190601f168015612b925780820380516001836020036101000a031916815260200191505b5060408051601f198184030181529190526020810180516001600160e01b03166001600160e01b0319909b169a909a1790995250614ffb9650505050505050565b612bdc57600080fd5b612cdf84600160200201518460016020020151836040518060e001604052808f600360078110612c0857fe5b602090810291909101516001600160a01b03168252018f6004602090810291909101516001600160a01b03168252018f6005602090810291909101516001600160a01b03168252018f6000602090810291909101516001600160a01b03168252018f6001602090810291909101516001600160a01b03168252018f6002602090810291909101516001600160a01b03168252018f600660200201516001600160a01b031690528d600160200201516040518e908d90602481019081906044018660e080838360008181015183820152602001612a74565b612ce857600080fd5b5060019a9950505050505050505050565b825160009015612d0857600080fd5b612d1061542b565b612d1861542b565b888060200190516080811015612d2d57600080fd5b50805160408a810151929450840192506001600160a01b03918216911614612d5457600080fd5b86516000906001811115612d6457fe5b14612d6e57600080fd5b612de4858960015b602002015160808b01518460005b60209081029190910151604080516001600160a01b03958616602482015293909416604484015260648084019190915283518084039091018152608490920190925290810180516001600160e01b03166323b872dd60e01b179052615013565b612ded57600080fd5b602082015160a08901516001600160a01b03908116911614612e0e57600080fd5b60208701516000906001811115612e2157fe5b14612e2b57600080fd5b60808801516020890151612e43918691846001612d84565b612e4c57600080fd5b50600198975050505050505050565b600080868060200190516040811015612e7357600080fd5b50805160209091015190925090506001600160a01b03821686600260200201516001600160a01b031614612ea657600080fd5b6000856001811115612eb457fe5b14612ebe57600080fd5b6020868101516080880151604080516001600160a01b0393841660248201529290911660448301526064808301859052815180840390910181526084909201905290810180516001600160e01b03166323b872dd60e01b179052612f23908490615013565b612f2c57600080fd5b50505050505050565b6000806000878060200190516060811015612f4f57600080fd5b508051602082015160409092015190945090925090506001600160a01b03831687600260200201516001600160a01b031614612f8a57600080fd5b6000866001811115612f9857fe5b14612fa257600080fd5b6020878101516080890151604080516001600160a01b039384166024820152929091166044830152606482018590526084820184905260a060a4830152600060c4830152805180830360e4018152610104909201905290810180516001600160e01b0316637921219560e11b17905261301c908590615013565b61302557600080fd5b5050505050505050565b82516000901561303e57600080fd5b61304661542b565b61304e61542b565b61305661542b565b8980602001905160c081101561306b57600080fd5b50805160408b810151929550850193506080850192506001600160a01b039182169116146130ca5760405162461bcd60e51b81526004018080602001828103825260388152602001806155b06038913960400191505060405180910390fd5b80516131075760405162461bcd60e51b815260040180806020018281038252602d815260200180615625602d913960400191505060405180910390fd5b8751600090600181111561311757fe5b146131535760405162461bcd60e51b81526004018080602001828103825260238152602001806154886023913960400191505060405180910390fd5b6131e4868a600160200201518b60045b602002015185518560005b60209081029190910151604080516001600160a01b0396871660248201529490951660448501526064840192909252608483019190915260a060a4830152600060c4830152825180830360e401815261010490920190925290810180516001600160e01b0316637921219560e11b179052615013565b6131ed57600080fd5b602083015160a08a01516001600160a01b039081169116146132405760405162461bcd60e51b815260040180806020018281038252603e81526020018061544a603e913960400191505060405180910390fd5b60208101516132805760405162461bcd60e51b815260040180806020018281038252602d815260200180615652602d913960400191505060405180910390fd5b6020880151600090600181111561329357fe5b146132cf5760405162461bcd60e51b815260040180806020018281038252602a815260200180615586602a913960400191505060405180910390fd5b6132f4858a600460200201518b60015b6020020151856001602002015185600161316e565b6132fd57600080fd5b5060019998505050505050505050565b60608060608089806020019051608081101561332857600080fd5b8101908080516040519392919084600160201b82111561334757600080fd5b90830190602082018581111561335c57600080fd5b82518660208202830111600160201b8211171561337857600080fd5b82525081516020918201928201910280838360005b838110156133a557818101518382015260200161338d565b5050505090500160405260200180516040519392919084600160201b8211156133cd57600080fd5b9083019060208201858111156133e257600080fd5b82518660208202830111600160201b821117156133fe57600080fd5b82525081516020918201928201910280838360005b8381101561342b578181015183820152602001613413565b5050505090500160405260200180516040519392919084600160201b82111561345357600080fd5b90830190602082018581111561346857600080fd5b82518660208202830111600160201b8211171561348457600080fd5b82525081516020918201928201910280838360005b838110156134b1578181015183820152602001613499565b5050505090500160405260200180516040519392919084600160201b8211156134d957600080fd5b9083019060208201858111156134ee57600080fd5b8251600160201b81118282018810171561350757600080fd5b82525081516020918201929091019080838360005b8381101561353457818101518382015260200161351c565b50505050905090810190601f1680156135615780820380516001836020036101000a031916815260200191505b506040525050509350935093509350815184511461357e57600080fd5b6000805b855181101561388557606084828151811061359957fe5b60200260200101516001600160401b03811180156135b657600080fd5b506040519080825280601f01601f1916602001820160405280156135e1576020820181803683370190505b50905060005b8583815181106135f357fe5b60200260200101518110156136485784848151811061360e57fe5b602001015160f81c60f81b82828151811061362557fe5b60200101906001600160f81b031916908160001a905350600193840193016135e7565b5061387387838151811061365857fe5b602002602001015187848151811061366c57fe5b6020026020010151838f8f8f8f8f604051602401808060200187600760200280838360005b838110156136a9578181015183820152602001613691565b5050505090500186600260200280838360005b838110156136d45781810151838201526020016136bc565b5050505090500185600660200280838360005b838110156136ff5781810151838201526020016136e7565b50505050905001806020018060200184810384528a818151815260200191508051906020019080838360005b8381101561374357818101518382015260200161372b565b50505050905090810190601f1680156137705780820380516001836020036101000a031916815260200191505b50848103835286518152865160209182019188019080838360005b838110156137a357818101518382015260200161378b565b50505050905090810190601f1680156137d05780820380516001836020036101000a031916815260200191505b50848103825285518152855160209182019187019080838360005b838110156138035781810151838201526020016137eb565b50505050905090810190601f1680156138305780820380516001836020036101000a031916815260200191505b5060408051601f198184030181529190526020810180516001600160e01b03166001600160e01b0319909d169c909c17909b5250614ffb98505050505050505050565b61387c57600080fd5b50600101613582565b505050505050505050505050565b604080516004808252602482019092526020810180516001600160e01b0316637921219560e11b1790526000916060916138cc91615077565b8551909150156138db57600080fd5b6138e361542b565b6138eb61542b565b6138f361542b565b8a80602001905160c081101561390857600080fd5b50805160408c810151929550850193506080850192506001600160a01b039182169116146139675760405162461bcd60e51b81526004018080602001828103825260388152602001806155b06038913960400191505060405180910390fd5b8851600090600181111561397757fe5b146139b35760405162461bcd60e51b81526004018080602001828103825260238152602001806154886023913960400191505060405180910390fd5b6139c7846139c2896004615077565b615013565b6139d057600080fd5b6139e4878b600160200201518c6004613163565b6139ed57600080fd5b612cdf868b600460200201518c60016132df565b60019695505050505050565b604080516004808252602482019092526020810180516001600160e01b03166323b872dd60e01b179052600091606091613a4691615077565b855190915015613a5557600080fd5b613a5d61542b565b613a6561542b565b898060200190516080811015613a7a57600080fd5b50805160408b810151929450840192506001600160a01b03918216911614613ad35760405162461bcd60e51b815260040180806020018281038252603781526020018061550c6037913960400191505060405180910390fd5b87516000906001811115613ae357fe5b14613b1f5760405162461bcd60e51b81526004018080602001828103825260228152602001806155646022913960400191505060405180910390fd5b613b2e836139c2886004615077565b613b3757600080fd5b6000806000613b4789600461508c565b8060200190516060811015613b5b57600080fd5b508051602082015160409092015190945090925090508b600160200201516001600160a01b0316836001600160a01b031614613b9657600080fd5b60808c01516001600160a01b03838116911614613bb257600080fd5b83518114613bbf57600080fd5b602085015160a08d01516001600160a01b03908116911614613c125760405162461bcd60e51b815260040180806020018281038252603d8152602001806155e8603d913960400191505060405180910390fd5b60208b01516000906001811115613c2557fe5b14613c615760405162461bcd60e51b81526004018080602001828103825260298152602001806154ab6029913960400191505060405180910390fd5b613c70866139c28a6004615077565b613c7957600080fd5b6000806000613c898b600461508c565b8060200190516060811015613c9d57600080fd5b508051602082015160409092015190945090925090508e600460200201516001600160a01b0316836001600160a01b031614613cd857600080fd5b60208f01516001600160a01b03838116911614613cf457600080fd5b60208701518114613d0457600080fd5b5060019f9e505050505050505050505050505050565b60008360055b6020020151600101979650505050505050565b606080606080888060200190516080811015613d4e57600080fd5b8101908080516040519392919084600160201b821115613d6d57600080fd5b908301906020820185811115613d8257600080fd5b82518660208202830111600160201b82111715613d9e57600080fd5b82525081516020918201928201910280838360005b83811015613dcb578181015183820152602001613db3565b5050505090500160405260200180516040519392919084600160201b821115613df357600080fd5b908301906020820185811115613e0857600080fd5b82518660208202830111600160201b82111715613e2457600080fd5b82525081516020918201928201910280838360005b83811015613e51578181015183820152602001613e39565b5050505090500160405260200180516040519392919084600160201b821115613e7957600080fd5b908301906020820185811115613e8e57600080fd5b82518660208202830111600160201b82111715613eaa57600080fd5b82525081516020918201928201910280838360005b83811015613ed7578181015183820152602001613ebf565b5050505090500160405260200180516040519392919084600160201b821115613eff57600080fd5b908301906020820185811115613f1457600080fd5b8251600160201b811182820188101715613f2d57600080fd5b82525081516020918201929091019080838360005b83811015613f5a578181015183820152602001613f42565b50505050905090810190601f168015613f875780820380516001836020036101000a031916815260200191505b5060405250505093509350935093508251845114613fa457600080fd5b606080606080613fb589600461508c565b8060200190516080811015613fc957600080fd5b8101908080516040519392919084600160201b821115613fe857600080fd5b908301906020820185811115613ffd57600080fd5b82518660208202830111600160201b8211171561401957600080fd5b82525081516020918201928201910280838360005b8381101561404657818101518382015260200161402e565b5050505090500160405260200180516040519392919084600160201b82111561406e57600080fd5b90830190602082018581111561408357600080fd5b82518660208202830111600160201b8211171561409f57600080fd5b82525081516020918201928201910280838360005b838110156140cc5781810151838201526020016140b4565b5050505090500160405260200180516040519392919084600160201b8211156140f457600080fd5b90830190602082018581111561410957600080fd5b82518660208202830111600160201b8211171561412557600080fd5b82525081516020918201928201910280838360005b8381101561415257818101518382015260200161413a565b5050505090500160405260200180516040519392919084600160201b82111561417a57600080fd5b90830190602082018581111561418f57600080fd5b8251600160201b8111828201881017156141a857600080fd5b82525081516020918201929091019080838360005b838110156141d55781810151838201526020016141bd565b50505050905090810190601f1680156142025780820380516001836020036101000a031916815260200191505b5060405250506000549498509296509094509250506001600160a01b03168c600260200201516001600160a01b03161461423b57600080fd5b60018b600181111561424957fe5b1461425357600080fd5b835188511461426157600080fd5b60005b88518110156142955783818151811061427957fe5b602002602001015160001461428d57600080fd5b600101614264565b506142a78483838f8e8d8d8d8d6150b0565b50505050505050505050505050565b5050505050565b8251600090156142cc57600080fd5b6142d461542b565b6142dc61542b565b8880602001905160808110156142f157600080fd5b50805160408a810151929450840192506001600160a01b0391821691161461434a5760405162461bcd60e51b815260040180806020018281038252603781526020018061550c6037913960400191505060405180910390fd5b8651600090600181111561435a57fe5b146143965760405162461bcd60e51b81526004018080602001828103825260228152602001806155646022913960400191505060405180910390fd5b6143a285896001612d76565b6143ab57600080fd5b602082015160a08901516001600160a01b039081169116146143fe5760405162461bcd60e51b815260040180806020018281038252603d8152602001806155e8603d913960400191505060405180910390fd5b6020870151600090600181111561441157fe5b14612e2b5760405162461bcd60e51b81526004018080602001828103825260298152602001806154ab6029913960400191505060405180910390fd5b60608060608089806020019051608081101561446857600080fd5b8101908080516040519392919084600160201b82111561448757600080fd5b90830190602082018581111561449c57600080fd5b82518660208202830111600160201b821117156144b857600080fd5b82525081516020918201928201910280838360005b838110156144e55781810151838201526020016144cd565b5050505090500160405260200180516040519392919084600160201b82111561450d57600080fd5b90830190602082018581111561452257600080fd5b82518660208202830111600160201b8211171561453e57600080fd5b82525081516020918201928201910280838360005b8381101561456b578181015183820152602001614553565b5050505090500160405260200180516040519392919084600160201b82111561459357600080fd5b9083019060208201858111156145a857600080fd5b82518660208202830111600160201b821117156145c457600080fd5b82525081516020918201928201910280838360005b838110156145f15781810151838201526020016145d9565b5050505090500160405260200180516040519392919084600160201b82111561461957600080fd5b90830190602082018581111561462e57600080fd5b8251600160201b81118282018810171561464757600080fd5b82525081516020918201929091019080838360005b8381101561467457818101518382015260200161465c565b50505050905090810190601f1680156146a15780820380516001836020036101000a031916815260200191505b50604052505050935093509350935081518451146146f05760405162461bcd60e51b81526004018080602001828103825260388152602001806154d46038913960400191505060405180910390fd5b6000805b85518110156147e457606084828151811061470b57fe5b60200260200101516001600160401b038111801561472857600080fd5b506040519080825280601f01601f191660200182016040528015614753576020820181803683370190505b50905060005b85838151811061476557fe5b60200260200101518110156147ba5784848151811061478057fe5b602001015160f81c60f81b82828151811061479757fe5b60200101906001600160f81b031916908160001a90535060019384019301614759565b506147ca87838151811061365857fe5b156147db575050505050505061482e565b506001016146f4565b506040805162461bcd60e51b8152602060048201526019602482015278139bc81cdd185d1a58c818d85b1b1cc81cdd58d8d959591959603a1b604482015290519081900360640190fd5b505050505050565b60006148468787878787876128a9565b50836005613d20565b60009695505050505050565b60608060608088806020019051608081101561487657600080fd5b8101908080516040519392919084600160201b82111561489557600080fd5b9083019060208201858111156148aa57600080fd5b82518660208202830111600160201b821117156148c657600080fd5b82525081516020918201928201910280838360005b838110156148f35781810151838201526020016148db565b5050505090500160405260200180516040519392919084600160201b82111561491b57600080fd5b90830190602082018581111561493057600080fd5b82518660208202830111600160201b8211171561494c57600080fd5b82525081516020918201928201910280838360005b83811015614979578181015183820152602001614961565b5050505090500160405260200180516040519392919084600160201b8211156149a157600080fd5b9083019060208201858111156149b657600080fd5b82518660208202830111600160201b821117156149d257600080fd5b82525081516020918201928201910280838360005b838110156149ff5781810151838201526020016149e7565b5050505090500160405260200180516040519392919084600160201b821115614a2757600080fd5b908301906020820185811115614a3c57600080fd5b8251600160201b811182820188101715614a5557600080fd5b82525081516020918201929091019080838360005b83811015614a82578181015183820152602001614a6a565b50505050905090810190601f168015614aaf5780820380516001836020036101000a031916815260200191505b5060405250505093509350935093508251845114614acc57600080fd5b606080606080614add89600461508c565b8060200190516080811015614af157600080fd5b8101908080516040519392919084600160201b821115614b1057600080fd5b908301906020820185811115614b2557600080fd5b82518660208202830111600160201b82111715614b4157600080fd5b82525081516020918201928201910280838360005b83811015614b6e578181015183820152602001614b56565b5050505090500160405260200180516040519392919084600160201b821115614b9657600080fd5b908301906020820185811115614bab57600080fd5b82518660208202830111600160201b82111715614bc757600080fd5b82525081516020918201928201910280838360005b83811015614bf4578181015183820152602001614bdc565b5050505090500160405260200180516040519392919084600160201b821115614c1c57600080fd5b908301906020820185811115614c3157600080fd5b82518660208202830111600160201b82111715614c4d57600080fd5b82525081516020918201928201910280838360005b83811015614c7a578181015183820152602001614c62565b5050505090500160405260200180516040519392919084600160201b821115614ca257600080fd5b908301906020820185811115614cb757600080fd5b8251600160201b811182820188101715614cd057600080fd5b82525081516020918201929091019080838360005b83811015614cfd578181015183820152602001614ce5565b50505050905090810190601f168015614d2a5780820380516001836020036101000a031916815260200191505b5060405250506000549498509296509094509250506001600160a01b03168c600260200201516001600160a01b031614614d6357600080fd5b60018b6001811115614d7157fe5b14614d7b57600080fd5b835188511115614d8a57600080fd5b60005b885181101561429557838181518110614da257fe5b6020026020010151600014614db657600080fd5b600101614d8d565b604080516004808252602482019092526020810180516001600160e01b03166323b872dd60e01b179052600091606091614df791615077565b855190915015614e0657600080fd5b614e0e61542b565b614e1661542b565b898060200190516080811015614e2b57600080fd5b50805160408b810151929450840192506001600160a01b03918216911614614e5257600080fd5b87516000906001811115614e6257fe5b14614e6c57600080fd5b614e7b836139c2886004615077565b614e8457600080fd5b6000806000614e9489600461508c565b8060200190516060811015614ea857600080fd5b508051602082015160409092015190945090925090508b600160200201516001600160a01b0316836001600160a01b031614614ee357600080fd5b60808c01516001600160a01b03838116911614614eff57600080fd5b602085015160a08d01516001600160a01b03908116911614614f2057600080fd5b60208b01516000906001811115614f3357fe5b14614f3d57600080fd5b614f4c866139c28a6004615077565b614f5557600080fd5b6000806000614f658b600461508c565b8060200190516060811015614f7957600080fd5b508051602082015160409092015190945090925090508e600460200201516001600160a01b0316836001600160a01b031614614fb457600080fd5b60208f01516001600160a01b03838116911614614fd057600080fd5b614fe2848860005b6020020151615306565b614fee82896001614fd8565b1015613d0457600080fd5b565b600080604051835160208501865afa90505b92915050565b81518151600091600191811480831461502f576000925061506d565b600160208701838101602088015b60028483851001141561506857805183511461505c5760009650600093505b6020928301920161503d565b505050505b5090949350505050565b60606150858360008461535f565b9392505050565b6060600061509b8451846153ce565b90506150a884848361535f565b949350505050565b60008060005b86518110156152eb5760608682815181106150cd57fe5b60200260200101516001600160401b03811180156150ea57600080fd5b506040519080825280601f01601f191660200182016040528015615115576020820181803683370190505b50905060005b87838151811061512757fe5b602002602001015181101561517c5785858151811061514257fe5b602001015160f81c60f81b82828151811061515957fe5b60200101906001600160f81b031916908160001a9053506001948501940161511b565b5060608c838151811061518b57fe5b60200260200101516001600160401b03811180156151a857600080fd5b506040519080825280601f01601f1916602001820160405280156151d3576020820181803683370190505b50905060005b8d84815181106151e557fe5b602002602001015181101561523a578c858151811061520057fe5b602001015160f81c60f81b82828151811061521757fe5b60200101906001600160f81b031916908160001a905350600194850194016151d9565b508d838151811061524757fe5b60200260200101518b60026007811061525c57fe5b60200201906001600160a01b031690816001600160a01b0316815250506152d889848151811061528857fe5b602002602001015188858151811061529c57fe5b6020026020010151848e60008f876040516024018080602001866007602002808383600083811015612a8c578181015183820152602001612a74565b6152e157600080fd5b50506001016150b6565b50825182146152f957600080fd5b5050505050505050505050565b6000826153155750600061500d565b8282028284828161532257fe5b04146150855760405162461bcd60e51b81526004018080602001828103825260218152602001806155436021913960400191505060405180910390fd5b6060808215801561537b576040519150602082016040526153c5565b6040519150601f8416801560200281840101858101878315602002848b0101015b818310156153b457805183526020928301920161539c565b5050858452601f01601f1916604052505b50949350505050565b600082821115615425576040805162461bcd60e51b815260206004820152601e60248201527f536166654d6174683a207375627472616374696f6e206f766572666c6f770000604482015290519081900360640190fd5b50900390565b6040518060400160405280600290602082028036833750919291505056fe455243313135353a20636f756e74657263616c6c20746172676574206d75737420657175616c2061646472657373206f6620746f6b656e20746f20676574455243313135353a2063616c6c206d7573742062652061206469726563742063616c6c4552433732313a20636f756e74657263616c6c206d7573742062652061206469726563742063616c6c446966666572656e74206e756d626572206f66207374617469632063616c6c2061646472657373657320616e6420657874726164617461734552433732313a2063616c6c20746172676574206d75737420657175616c2061646472657373206f6620746f6b656e20746f2067697665536166654d6174683a206d756c7469706c69636174696f6e206f766572666c6f774552433732313a2063616c6c206d7573742062652061206469726563742063616c6c455243313135353a20636f756e74657263616c6c206d7573742062652061206469726563742063616c6c455243313135353a2063616c6c20746172676574206d75737420657175616c2061646472657373206f6620746f6b656e20746f20676976654552433732313a20636f756e74657263616c6c20746172676574206d75737420657175616c2061646472657373206f6620746f6b656e20746f20676574455243313135353a206769766520616d6f756e74206d757374206265206c6172676572207468616e207a65726f455243313135353a2074616b6520616d6f756e74206d757374206265206c6172676572207468616e207a65726fa2646970667358221220db88d88dea4a697d67d072a285231507b94b7ec1272fc6f90e2bcf26b9f9e3d464736f6c63430007050033",
  "devdoc": {
    "author": "Wyvern Protocol Developers",
    "kind": "dev",
    "methods": {},
    "title": "WyvernStatic",
    "version": 1
  },
  "userdoc": {
    "kind": "user",
    "methods": {},
    "version": 1
  },
  "storageLayout": {
    "storage": [
      {
        "astId": 4924,
        "contract": "contracts/WyvernStatic.sol:WyvernStatic",
        "label": "atomicizer",
        "offset": 0,
        "slot": "0",
        "type": "t_address"
      }
    ],
    "types": {
      "t_address": {
        "encoding": "inplace",
        "label": "address",
        "numberOfBytes": "20"
      }
    }
  }
}