{
  "address": "0x5EFd6Acd53D4a192F7038A7b056Ee045Fd58e928",
  "abi": [
    {
      "inputs": [
        {
          "internalType": "uint256",
          "name": "chainId",
          "type": "uint256"
        },
        {
          "internalType": "address[]",
          "name": "registryAddrs",
          "type": "address[]"
        },
        {
          "internalType": "bytes",
          "name": "customPersonalSignPrefix",
          "type": "bytes"
        }
      ],
      "stateMutability": "nonpayable",
      "type": "constructor"
    },
    {
      "anonymous": false,
      "inputs": [
        {
          "indexed": true,
          "internalType": "bytes32",
          "name": "hash",
          "type": "bytes32"
        },
        {
          "indexed": false,
          "internalType": "address",
          "name": "registry",
          "type": "address"
        },
        {
          "indexed": true,
          "internalType": "address",
          "name": "maker",
          "type": "address"
        },
        {
          "indexed": false,
          "internalType": "address",
          "name": "staticTarget",
          "type": "address"
        },
        {
          "indexed": false,
          "internalType": "bytes4",
          "name": "staticSelector",
          "type": "bytes4"
        },
        {
          "indexed": false,
          "internalType": "bytes",
          "name": "staticExtradata",
          "type": "bytes"
        },
        {
          "indexed": false,
          "internalType": "uint256",
          "name": "maximumFill",
          "type": "uint256"
        },
        {
          "indexed": false,
          "internalType": "uint256",
          "name": "listingTime",
          "type": "uint256"
        },
        {
          "indexed": false,
          "internalType": "uint256",
          "name": "expirationTime",
          "type": "uint256"
        },
        {
          "indexed": false,
          "internalType": "uint256",
          "name": "salt",
          "type": "uint256"
        },
        {
          "indexed": false,
          "internalType": "bool",
          "name": "orderbookInclusionDesired",
          "type": "bool"
        }
      ],
      "name": "OrderApproved",
      "type": "event"
    },
    {
      "anonymous": false,
      "inputs": [
        {
          "indexed": true,
          "internalType": "bytes32",
          "name": "hash",
          "type": "bytes32"
        },
        {
          "indexed": true,
          "internalType": "address",
          "name": "maker",
          "type": "address"
        },
        {
          "indexed": false,
          "internalType": "uint256",
          "name": "newFill",
          "type": "uint256"
        }
      ],
      "name": "OrderFillChanged",
      "type": "event"
    },
    {
      "anonymous": false,
      "inputs": [
        {
          "indexed": false,
          "internalType": "bytes32",
          "name": "firstHash",
          "type": "bytes32"
        },
        {
          "indexed": false,
          "internalType": "bytes32",
          "name": "secondHash",
          "type": "bytes32"
        },
        {
          "indexed": true,
          "internalType": "address",
          "name": "firstMaker",
          "type": "address"
        },
        {
          "indexed": true,
          "internalType": "address",
          "name": "secondMaker",
          "type": "address"
        },
        {
          "indexed": false,
          "internalType": "uint256",
          "name": "newFirstFill",
          "type": "uint256"
        },
        {
          "indexed": false,
          "internalType": "uint256",
          "name": "newSecondFill",
          "type": "uint256"
        },
        {
          "indexed": true,
          "internalType": "bytes32",
          "name": "metadata",
          "type": "bytes32"
        }
      ],
      "name": "OrdersMatched",
      "type": "event"
    },
    {
      "inputs": [
        {
          "internalType": "bytes32",
          "name": "hash",
          "type": "bytes32"
        }
      ],
      "name": "approveOrderHash_",
      "outputs": [],
      "stateMutability": "nonpayable",
      "type": "function"
    },
    {
      "inputs": [
        {
          "internalType": "address",
          "name": "registry",
          "type": "address"
        },
        {
          "internalType": "address",
          "name": "maker",
          "type": "address"
        },
        {
          "internalType": "address",
          "name": "staticTarget",
          "type": "address"
        },
        {
          "internalType": "bytes4",
          "name": "staticSelector",
          "type": "bytes4"
        },
        {
          "internalType": "bytes",
          "name": "staticExtradata",
          "type": "bytes"
        },
        {
          "internalType": "uint256",
          "name": "maximumFill",
          "type": "uint256"
        },
        {
          "internalType": "uint256",
          "name": "listingTime",
          "type": "uint256"
        },
        {
          "internalType": "uint256",
          "name": "expirationTime",
          "type": "uint256"
        },
        {
          "internalType": "uint256",
          "name": "salt",
          "type": "uint256"
        },
        {
          "internalType": "bool",
          "name": "orderbookInclusionDesired",
          "type": "bool"
        }
      ],
      "name": "approveOrder_",
      "outputs": [],
      "stateMutability": "nonpayable",
      "type": "function"
    },
    {
      "inputs": [
        {
          "internalType": "address",
          "name": "",
          "type": "address"
        },
        {
          "internalType": "bytes32",
          "name": "",
          "type": "bytes32"
        }
      ],
      "name": "approved",
      "outputs": [
        {
          "internalType": "bool",
          "name": "",
          "type": "bool"
        }
      ],
      "stateMutability": "view",
      "type": "function"
    },
    {
      "inputs": [
        {
          "internalType": "uint256[16]",
          "name": "uints",
          "type": "uint256[16]"
        },
        {
          "internalType": "bytes4[2]",
          "name": "staticSelectors",
          "type": "bytes4[2]"
        },
        {
          "internalType": "bytes",
          "name": "firstExtradata",
          "type": "bytes"
        },
        {
          "internalType": "bytes",
          "name": "firstCalldata",
          "type": "bytes"
        },
        {
          "internalType": "bytes",
          "name": "secondExtradata",
          "type": "bytes"
        },
        {
          "internalType": "bytes",
          "name": "secondCalldata",
          "type": "bytes"
        },
        {
          "internalType": "uint8[2]",
          "name": "howToCalls",
          "type": "uint8[2]"
        },
        {
          "internalType": "bytes32",
          "name": "metadata",
          "type": "bytes32"
        },
        {
          "internalType": "bytes",
          "name": "signatures",
          "type": "bytes"
        }
      ],
      "name": "atomicMatch_",
      "outputs": [],
      "stateMutability": "payable",
      "type": "function"
    },
    {
      "inputs": [],
      "name": "codename",
      "outputs": [
        {
          "internalType": "string",
          "name": "",
          "type": "string"
        }
      ],
      "stateMutability": "view",
      "type": "function"
    },
    {
      "inputs": [
        {
          "internalType": "address",
          "name": "",
          "type": "address"
        },
        {
          "internalType": "bytes32",
          "name": "",
          "type": "bytes32"
        }
      ],
      "name": "fills",
      "outputs": [
        {
          "internalType": "uint256",
          "name": "",
          "type": "uint256"
        }
      ],
      "stateMutability": "view",
      "type": "function"
    },
    {
      "inputs": [
        {
          "internalType": "address",
          "name": "registry",
          "type": "address"
        },
        {
          "internalType": "address",
          "name": "maker",
          "type": "address"
        },
        {
          "internalType": "address",
          "name": "staticTarget",
          "type": "address"
        },
        {
          "internalType": "bytes4",
          "name": "staticSelector",
          "type": "bytes4"
        },
        {
          "internalType": "bytes",
          "name": "staticExtradata",
          "type": "bytes"
        },
        {
          "internalType": "uint256",
          "name": "maximumFill",
          "type": "uint256"
        },
        {
          "internalType": "uint256",
          "name": "listingTime",
          "type": "uint256"
        },
        {
          "internalType": "uint256",
          "name": "expirationTime",
          "type": "uint256"
        },
        {
          "internalType": "uint256",
          "name": "salt",
          "type": "uint256"
        }
      ],
      "name": "hashOrder_",
      "outputs": [
        {
          "internalType": "bytes32",
          "name": "hash",
          "type": "bytes32"
        }
      ],
      "stateMutability": "pure",
      "type": "function"
    },
    {
      "inputs": [
        {
          "internalType": "bytes32",
          "name": "orderHash",
          "type": "bytes32"
        }
      ],
      "name": "hashToSign_",
      "outputs": [
        {
          "internalType": "bytes32",
          "name": "hash",
          "type": "bytes32"
        }
      ],
      "stateMutability": "view",
      "type": "function"
    },
    {
      "inputs": [],
      "name": "name",
      "outputs": [
        {
          "internalType": "string",
          "name": "",
          "type": "string"
        }
      ],
      "stateMutability": "view",
      "type": "function"
    },
    {
      "inputs": [
        {
          "internalType": "address",
          "name": "",
          "type": "address"
        }
      ],
      "name": "registries",
      "outputs": [
        {
          "internalType": "bool",
          "name": "",
          "type": "bool"
        }
      ],
      "stateMutability": "view",
      "type": "function"
    },
    {
      "inputs": [
        {
          "internalType": "bytes32",
          "name": "hash",
          "type": "bytes32"
        },
        {
          "internalType": "uint256",
          "name": "fill",
          "type": "uint256"
        }
      ],
      "name": "setOrderFill_",
      "outputs": [],
      "stateMutability": "nonpayable",
      "type": "function"
    },
    {
      "inputs": [
        {
          "internalType": "bytes32",
          "name": "hash",
          "type": "bytes32"
        },
        {
          "internalType": "address",
          "name": "maker",
          "type": "address"
        },
        {
          "internalType": "bytes",
          "name": "signature",
          "type": "bytes"
        }
      ],
      "name": "validateOrderAuthorization_",
      "outputs": [
        {
          "internalType": "bool",
          "name": "",
          "type": "bool"
        }
      ],
      "stateMutability": "view",
      "type": "function"
    },
    {
      "inputs": [
        {
          "internalType": "address",
          "name": "registry",
          "type": "address"
        },
        {
          "internalType": "address",
          "name": "maker",
          "type": "address"
        },
        {
          "internalType": "address",
          "name": "staticTarget",
          "type": "address"
        },
        {
          "internalType": "bytes4",
          "name": "staticSelector",
          "type": "bytes4"
        },
        {
          "internalType": "bytes",
          "name": "staticExtradata",
          "type": "bytes"
        },
        {
          "internalType": "uint256",
          "name": "maximumFill",
          "type": "uint256"
        },
        {
          "internalType": "uint256",
          "name": "listingTime",
          "type": "uint256"
        },
        {
          "internalType": "uint256",
          "name": "expirationTime",
          "type": "uint256"
        },
        {
          "internalType": "uint256",
          "name": "salt",
          "type": "uint256"
        }
      ],
      "name": "validateOrderParameters_",
      "outputs": [
        {
          "internalType": "bool",
          "name": "",
          "type": "bool"
        }
      ],
      "stateMutability": "view",
      "type": "function"
    },
    {
      "inputs": [],
      "name": "version",
      "outputs": [
        {
          "internalType": "string",
          "name": "",
          "type": "string"
        }
      ],
      "stateMutability": "view",
      "type": "function"
    }
  ],
  "transactionHash": "0x9f84dd04380abaad06a593b38259cebf4d7815358d746e8a8f2de2bee9e9e706",
  "args": [
    80001,
    [
      "0xC3aE34c5a5993467eeFF46FF07306e8596E1cea2",
      "0xa5409ec958C83C3f309868babACA7c86DCB077c1"
    ],
    {
      "0": 25,
      "1": 69,
      "2": 116,
      "3": 104,
      "4": 101,
      "5": 114,
      "6": 101,
      "7": 117,
      "8": 109,
      "9": 32,
      "10": 83,
      "11": 105,
      "12": 103,
      "13": 110,
      "14": 101,
      "15": 100,
      "16": 32,
      "17": 77,
      "18": 101,
      "19": 115,
      "20": 115,
      "21": 97,
      "22": 103,
      "23": 101,
      "24": 58,
      "25": 10
    }
  ],
  "numDeployments": 1,
  "solcInputHash": "0c7a43037bc973b90378f1240c2c1e62",
  "bytecode": "0x6000805460ff1916905560c0604052601a60808190527f19457468657265756d205369676e6564204d6573736167653a0a00000000000060a09081526200004a916002919062000336565b503480156200005857600080fd5b5060405162002a7738038062002a77833981810160405260608110156200007e57600080fd5b815160208301805160405192949293830192919084640100000000821115620000a657600080fd5b908301906020820185811115620000bc57600080fd5b8251866020820283011164010000000082111715620000da57600080fd5b82525081516020918201928201910280838360005b8381101562000109578181015183820152602001620000ef565b50505050905001604052602001805160405193929190846401000000008211156200013357600080fd5b9083019060208201858111156200014957600080fd5b82516401000000008111828201881017156200016457600080fd5b82525081516020918201929091019080838360005b838110156200019357818101518382015260200162000179565b50505050905090810190601f168015620001c15780820380516001836020036101000a031916815260200191505b5060c081016040908152600f608083019081526e57797665726e2045786368616e676560881b60a08401528252805180820182526003815262332e3160e81b6020828101919091528301528101879052306060820152620002269350915050620002ad565b60015560005b825181101562000284576001600360008584815181106200024957fe5b6020908102919091018101516001600160a01b03168252810191909152604001600020805460ff19169115159190911790556001016200022c565b50805115620002a4578051620002a290600290602084019062000336565b505b505050620003e2565b805180516020918201208183015180519083012060408085015160608087015183517f8b73c3c69bb8fe3d512ecc4cf759cc79239f7b179b0ffacaa9a75d522b39400f81890152808501969096529085019390935260808401526001600160a01b0390911660a0808401919091528151808403909101815260c090920190528051910120919050565b828054600181600116156101000203166002900490600052602060002090601f0160209004810192826200036e5760008555620003b9565b82601f106200038957805160ff1916838001178555620003b9565b82800160010185558215620003b9579182015b82811115620003b95782518255916020019190600101906200039c565b50620003c7929150620003cb565b5090565b5b80821115620003c75760008155600101620003cc565b61268580620003f26000396000f3fe6080604052600436106100ad5760003560e01c806306fdde03146100b25780630812226e1461013c57806313b219e21461016857806314127f131461020c57806331e631991461023c57806354fd4d5014610251578063995e8195146102665780639a5168db1461032e578063caed80df14610674578063d57ad588146106a7578063f861975b146106e3578063f9b0bc20146107a3578063fac7fc3814610863578063ffc2ab141461089c575b600080fd5b3480156100be57600080fd5b506100c76108d5565b6040805160208082528351818301528351919283929083019185019080838360005b838110156101015781810151838201526020016100e9565b50505050905090810190601f16801561012e5780820380516001836020036101000a031916815260200191505b509250505060405180910390f35b34801561014857600080fd5b506101666004803603602081101561015f57600080fd5b5035610900565b005b34801561017457600080fd5b506101f86004803603606081101561018b57600080fd5b8135916001600160a01b0360208201351691810190606081016040820135600160201b8111156101ba57600080fd5b8201836020820111156101cc57600080fd5b803590602001918460018302840111600160201b831117156101ed57600080fd5b50909250905061090c565b604080519115158252519081900360200190f35b34801561021857600080fd5b506101666004803603604081101561022f57600080fd5b5080359060200135610958565b34801561024857600080fd5b506100c7610966565b34801561025d57600080fd5b506100c761098b565b34801561027257600080fd5b50610166600480360361014081101561028a57600080fd5b6001600160a01b03823581169260208101358216926040820135909216916001600160e01b0319606083013516919081019060a081016080820135600160201b8111156102d657600080fd5b8201836020820111156102e857600080fd5b803590602001918460018302840111600160201b8311171561030957600080fd5b91935091508035906020810135906040810135906060810135906080013515156109aa565b610166600480360361034081101561034557600080fd5b810190808061020001906010806020026040519081016040528092919082601060200280828437600092019190915250506040805180820182529295949381810193925090600290839083908082843760009201919091525091949392602081019250359050600160201b8111156103bc57600080fd5b8201836020820111156103ce57600080fd5b803590602001918460018302840111600160201b831117156103ef57600080fd5b91908080601f0160208091040260200160405190810160405280939291908181526020018383808284376000920191909152509295949360208101935035915050600160201b81111561044157600080fd5b82018360208201111561045357600080fd5b803590602001918460018302840111600160201b8311171561047457600080fd5b91908080601f0160208091040260200160405190810160405280939291908181526020018383808284376000920191909152509295949360208101935035915050600160201b8111156104c657600080fd5b8201836020820111156104d857600080fd5b803590602001918460018302840111600160201b831117156104f957600080fd5b91908080601f0160208091040260200160405190810160405280939291908181526020018383808284376000920191909152509295949360208101935035915050600160201b81111561054b57600080fd5b82018360208201111561055d57600080fd5b803590602001918460018302840111600160201b8311171561057e57600080fd5b91908080601f0160208091040260200160405190810160405280939291908181526020018383808284376000920191909152505060408051808201825293969594818101949350915060029083908390808284376000920191909152509194833594909390925060408101915060200135600160201b81111561060057600080fd5b82018360208201111561061257600080fd5b803590602001918460018302840111600160201b8311171561063357600080fd5b91908080601f016020809104026020016040519081016040528093929190818152602001838380828437600092019190915250929550610a5d945050505050565b34801561068057600080fd5b506101f86004803603602081101561069757600080fd5b50356001600160a01b0316610ce0565b3480156106b357600080fd5b506106d1600480360360208110156106ca57600080fd5b5035610cf5565b60408051918252519081900360200190f35b3480156106ef57600080fd5b506106d1600480360361012081101561070757600080fd5b6001600160a01b03823581169260208101358216926040820135909216916001600160e01b0319606083013516919081019060a081016080820135600160201b81111561075357600080fd5b82018360208201111561076557600080fd5b803590602001918460018302840111600160201b8311171561078657600080fd5b919350915080359060208101359060408101359060600135610d06565b3480156107af57600080fd5b506101f860048036036101208110156107c757600080fd5b6001600160a01b03823581169260208101358216926040820135909216916001600160e01b0319606083013516919081019060a081016080820135600160201b81111561081357600080fd5b82018360208201111561082557600080fd5b803590602001918460018302840111600160201b8311171561084657600080fd5b919350915080359060208101359060408101359060600135610dbc565b34801561086f57600080fd5b506101f86004803603604081101561088657600080fd5b506001600160a01b038135169060200135610e87565b3480156108a857600080fd5b506106d1600480360360408110156108bf57600080fd5b506001600160a01b038135169060200135610ea7565b6040518060400160405280600f81526020016e57797665726e2045786368616e676560881b81525081565b61090981610ec4565b50565b600061094f858585858080601f016020809104026020016040519081016040528093929190818152602001838380828437600092019190915250610f5a92505050565b95945050505050565b610962828261131a565b5050565b6040518060400160405280600981526020016820b731b0b630b3b7b760b91b81525081565b60405180604001604052806003815260200162332e3160e81b81525081565b610a506040518061012001604052808d6001600160a01b031681526020018c6001600160a01b031681526020018b6001600160a01b031681526020018a6001600160e01b031916815260200189898080601f016020809104026020016040519081016040528093929190818152602001838380828437600092019190915250505090825250602081018890526040810187905260608101869052608001849052826113c7565b5050505050505050505050565b610cd56040518061012001604052808b600060108110610a7957fe5b60200201516001600160a01b031681526020018b600160108110610a9957fe5b60200201516001600160a01b031681526020018b600260108110610ab957fe5b60200201516001600160a01b031681526020018a600060028110610ad957fe5b60200201516001600160e01b03191681526020018981526020018b600360108110610b0057fe5b602002015181526020018b600460108110610b1757fe5b602002015181526020018b600560108110610b2e57fe5b602002015181526020018b600660108110610b4557fe5b602002015190526040805160608101909152808c600760200201516001600160a01b0316815260200186600060028110610b7b57fe5b602002015160ff166001811115610b8e57fe5b6001811115610b9957fe5b815260209081018a90526040805161012081019091526101008e01516001600160a01b031681529081018d600960200201516001600160a01b031681526020018d600a60108110610be657fe5b60200201516001600160a01b031681526020018c600160028110610c0657fe5b60200201516001600160e01b03191681526020018981526020018d600b60108110610c2d57fe5b602002015181526020018d600c60108110610c4457fe5b602002015181526020018d600d60108110610c5b57fe5b602002015181526020018d600e60108110610c7257fe5b602002015190526040805160608101909152808e600f60200201516001600160a01b0316815260200188600160028110610ca857fe5b602002015160ff166001811115610cbb57fe5b6001811115610cc657fe5b81526020018990528587611554565b505050505050505050565b60036020526000908152604090205460ff1681565b6000610d0082611b87565b92915050565b6000610dad6040518061012001604052808d6001600160a01b031681526020018c6001600160a01b031681526020018b6001600160a01b031681526020018a6001600160e01b031916815260200189898080601f016020809104026020016040519081016040528093929190818152602001838380828437600092019190915250505090825250602081018890526040810187905260608101869052608001849052611bc5565b9b9a5050505050505050505050565b6000610dc6612458565b6040518061012001604052808d6001600160a01b031681526020018c6001600160a01b031681526020018b6001600160a01b031681526020018a6001600160e01b031916815260200189898080601f0160208091040260200160405190810160405280939291908181526020018383808284376000920191909152505050908252506020810188905260408101879052606081018690526080018490529050610e7781610e7281611bc5565b611cae565b9c9b505050505050505050505050565b600560209081526000928352604080842090915290825290205460ff1681565b600460209081526000928352604080842090915290825290205481565b33600090815260056020908152604080832084845290915290205460ff1615610f34576040805162461bcd60e51b815260206004820152601f60248201527f4f726465722068617320616c7265616479206265656e20617070726f76656400604482015290519081900360640190fd5b33600090815260056020908152604080832093835292905220805460ff19166001179055565b6001600160a01b038216600090815260046020908152604080832086845290915281205415610f8b57506001611313565b6001600160a01b038316331415610fa457506001611313565b6001600160a01b038316600090815260056020908152604080832087845290915290205460ff1615610fd857506001611313565b6000610fe385611b87565b90506000610ff085611d3a565b905080156110ff5760408051630b135d3f60e11b808252600482018581526024830193845287516044840152875191936001600160a01b038a1693631626ba7e9388938b9390929091606490910190602085019080838360005b8381101561106257818101518382015260200161104a565b50505050905090810190601f16801561108f5780820380516001836020036101000a031916815260200191505b50935050505060206040518083038186803b1580156110ad57600080fd5b505afa1580156110c1573d6000803e3d6000fd5b505050506040513d60208110156110d757600080fd5b50516001600160e01b03191614156110f457600192505050611313565b600092505050611313565b600080600086806020019051606081101561111957600080fd5b50805160208201516040909201518951919550919350909150604110801561116357508660018851038151811061114c57fe5b6020910101516001600160f81b031916600360f81b145b1561127e57876001600160a01b0316600160028760405160200180838054600181600116156101000203166002900480156111d55780601f106111b35761010080835404028352918201916111d5565b820191906000526020600020905b8154815290600101906020018083116111c1575b505061199960f11b81526002808201939093526040805180830390940184526022820180825284516020958601206000909152604283018083525260ff8a1660628301526082820189905260a282018890525160c28083019550601f19820193509181900390910190855afa158015611252573d6000803e3d6000fd5b505050602060405103516001600160a01b0316141561127957600195505050505050611313565b611309565b876001600160a01b031660018685858560405160008152602001604052604051808581526020018460ff1681526020018381526020018281526020019450505050506020604051602081039080840390855afa1580156112e2573d6000803e3d6000fd5b505050602060405103516001600160a01b0316141561130957600195505050505050611313565b6000955050505050505b9392505050565b3360009081526004602090815260408083208584529091529020548114156113735760405162461bcd60e51b81526004018080602001828103825260288152602001806125796028913960400191505060405180910390fd5b3360008181526004602090815260408083208684528252918290208490558151848152915185927f826cd05b52546b47590739469989cacd5336e0a9e6f9392de2dee5cfb19c8aab92908290030190a35050565b60208201516001600160a01b031633146114125760405162461bcd60e51b815260040180806020018281038252604a8152602001806124fe604a913960600191505060405180910390fd5b600061141d83611bc5565b905061142881610ec4565b82602001516001600160a01b0316817fbace5d282ba59cba3de1ac539b0ed46ae5a3d8ad434a3ac9f07ce45d1661481885600001518660400151876060015188608001518960a001518a60c001518b60e001518c61010001518c604051808a6001600160a01b03168152602001896001600160a01b03168152602001886001600160e01b0319168152602001806020018781526020018681526020018581526020018481526020018315158152602001828103825288818151815260200191508051906020019080838360005b8381101561150d5781810151838201526020016114f5565b50505050905090810190601f16801561153a5780820380516001836020036101000a031916815260200191505b509a505050505050505050505060405180910390a3505050565b60005460ff16156115a2576040805162461bcd60e51b81526020600482015260136024820152721499595b9d1c985b98de4819195d1958dd1959606a1b604482015290519081900360640190fd5b6000805460ff191660011781556115b887611bc5565b90506115c48782611cae565b6115ff5760405162461bcd60e51b81526004018080602001828103825260228152602001806125ea6022913960400191505060405180910390fd5b600061160a86611bc5565b90506116168682611cae565b6116515760405162461bcd60e51b815260040180806020018281038252602381526020018061262d6023913960400191505060405180910390fd5b808214156116905760405162461bcd60e51b81526004018080602001828103825260228152602001806125a16022913960400191505060405180910390fd5b6060808580602001905160408110156116a857600080fd5b8101908080516040519392919084600160201b8211156116c757600080fd5b9083019060208201858111156116dc57600080fd5b8251600160201b8111828201881017156116f557600080fd5b82525081516020918201929091019080838360005b8381101561172257818101518382015260200161170a565b50505050905090810190601f16801561174f5780820380516001836020036101000a031916815260200191505b5060405260200180516040519392919084600160201b82111561177157600080fd5b90830190602082018581111561178657600080fd5b8251600160201b81118282018810171561179f57600080fd5b82525081516020918201929091019080838360005b838110156117cc5781810151838201526020016117b4565b50505050905090810190601f1680156117f95780820380516001836020036101000a031916815260200191505b5060405250505091509150611813848b6020015184610f5a565b611864576040805162461bcd60e51b815260206004820181905260248201527f4669727374206f72646572206661696c656420617574686f72697a6174696f6e604482015290519081900360640190fd5b61187383896020015183610f5a565b6118ae5760405162461bcd60e51b815260040180806020018281038252602181526020018061260c6021913960400191505060405180910390fd5b505034156119625760208801516040516000916001600160a01b03169034908381818185875af1925050503d8060008114611905576040519150601f19603f3d011682016040523d82523d6000602084013e61190a565b606091505b5050905080611960576040805162461bcd60e51b815260206004820152601d60248201527f6e617469766520746f6b656e207472616e73666572206661696c65642e000000604482015290519081900360640190fd5b505b6119758860000151896020015189611d40565b6119ba576040805162461bcd60e51b8152602060048201526011602482015270119a5c9cdd0818d85b1b0819985a5b1959607a1b604482015290519081900360640190fd5b6119cd8660000151876020015187611d40565b611a13576040805162461bcd60e51b815260206004820152601260248201527114d958dbdb990818d85b1b0819985a5b195960721b604482015290519081900360640190fd5b6020808901516001600160a01b039081166000908152600480845260408083208784528552808320548b8601519094168352908452808220858352909352918220549091611a668b8b8b8b3334896120b1565b90506000611a7a8a8a8e8e336000896120b1565b60208d01519091506001600160a01b03163314611ac057838214611ac0576020808d01516001600160a01b03166000908152600482526040808220898352909252208290555b60208a01516001600160a01b03163314611b0357828114611b03576020808b01516001600160a01b03166000908152600482526040808220888352909252208190555b868a602001516001600160a01b03168d602001516001600160a01b03167fe8447df45ce371d4c2f6cfcb9342b06165f71b244e809b909977f0dab191a009898987876040518085815260200184815260200183815260200182815260200194505050505060405180910390a450506000805460ff1916905550505050505050505050565b6001546040805161190160f01b6020808301919091526022820193909352604280820194909452815180820390940184526062019052815191012090565b60007feb61b8100bcd004cad335a779aa74e9b176b520f4b98e7b487c133a82e9853dd82600001518360200151846040015185606001518660800151805190602001208760a001518860c001518960e001518a6101000151604051602001808b81526020018a6001600160a01b03168152602001896001600160a01b03168152602001886001600160a01b03168152602001876001600160e01b03191681526020018681526020018581526020018481526020018381526020018281526020019a5050505050505050505050604051602081830303815290604052805190602001209050919050565b6000428360c001511180611cd4575060e083015115801590611cd45750428360e0015111155b15611ce157506000610d00565b60a08301516020808501516001600160a01b03166000908152600482526040808220868352909252205410611d1857506000610d00565b611d258360400151611d3a565b611d3157506000610d00565b50600192915050565b3b151590565b6001600160a01b03831660009081526003602052604081205460ff16611d6557600080fd5b8151611d7090611d3a565b611dbe576040805162461bcd60e51b815260206004820152601a60248201527910d85b1b081d185c99d95d08191bd95cc81b9bdd08195e1a5cdd60321b604482015290519081900360640190fd5b6000846001600160a01b031663c4552791856040518263ffffffff1660e01b815260040180826001600160a01b03168152602001915050602060405180830381600087803b158015611e0f57600080fd5b505af1158015611e23573d6000803e3d6000fd5b505050506040513d6020811015611e3957600080fd5b505190506001600160a01b038116611e825760405162461bcd60e51b81526004018080602001828103825260278152602001806125c36027913960400191505060405180910390fd5b846001600160a01b03166397204d8e6040518163ffffffff1660e01b8152600401602060405180830381600087803b158015611ebd57600080fd5b505af1158015611ed1573d6000803e3d6000fd5b505050506040513d6020811015611ee757600080fd5b505160408051635c60da1b60e01b815290516001600160a01b0392831692841691635c60da1b916004808301926020929190829003018186803b158015611f2d57600080fd5b505afa158015611f41573d6000803e3d6000fd5b505050506040513d6020811015611f5757600080fd5b50516001600160a01b031614611f9e5760405162461bcd60e51b81526004018080602001828103825260318152602001806125486031913960400191505060405180910390fd5b6000819050806001600160a01b0316631b0f7ba98560000151866020015187604001516040518463ffffffff1660e01b815260040180846001600160a01b03168152602001836001811115611fef57fe5b815260200180602001828103825283818151815260200191508051906020019080838360005b8381101561202d578181015183820152602001612015565b50505050905090810190601f16801561205a5780820380516001836020036101000a031916815260200191505b50945050505050602060405180830381600087803b15801561207b57600080fd5b505af115801561208f573d6000803e3d6000fd5b505050506040513d60208110156120a557600080fd5b50519695505050505050565b60006120cf88604001516120ca8a8a8a8a8a8a8a6120db565b6123ef565b98975050505050505050565b60606120e56124a3565b506040805160e08101825289516001600160a01b0390811682526020808c01518216818401528a5182169383019390935288518116606083015291880151821660808201528651821660a082015290851660c08201526121436124c1565b60405180604001604052808a60200151600181111561215e57fe5b600181111561216957fe5b81526020018860200151600181111561217e57fe5b600181111561218957fe5b905290506121956124df565b6040518060c001604052808781526020018c60a0015181526020018c60c0015181526020018c60e0015181526020018a60c0015181526020018681525090508a606001518b608001518484848e604001518d60400151604051602401808060200187600760200280838360005b8381101561221a578181015183820152602001612202565b5050505090500186600260200280838360005b8381101561224557818101518382015260200161222d565b5050505090500185600660200280838360005b83811015612270578181015183820152602001612258565b50505050905001806020018060200184810384528a818151815260200191508051906020019080838360005b838110156122b457818101518382015260200161229c565b50505050905090810190601f1680156122e15780820380516001836020036101000a031916815260200191505b50848103835286518152865160209182019188019080838360005b838110156123145781810151838201526020016122fc565b50505050905090810190601f1680156123415780820380516001836020036101000a031916815260200191505b50848103825285518152855160209182019187019080838360005b8381101561237457818101518382015260200161235c565b50505050905090810190601f1680156123a15780820380516001836020036101000a031916815260200191505b5060408051601f198184030181529190526020810180516001600160e01b03166001600160e01b0319909d169c909c17909b5250989c50505050505050505050505050979650505050505050565b60008060206040518181865160208801895afa925080519350505080612451576040805162461bcd60e51b815260206004820152601260248201527114dd185d1a58c818d85b1b0819985a5b195960721b604482015290519081900360640190fd5b5092915050565b60408051610120810182526000808252602082018190529181018290526060808201839052608082015260a0810182905260c0810182905260e0810182905261010081019190915290565b6040518060e001604052806007906020820280368337509192915050565b60405180604001604052806002906020820280368337509192915050565b6040518060c00160405280600690602082028036833750919291505056fe53656e646572206973206e6f7420746865206d616b6572206f6620746865206f7264657220616e642074687573206e6f7420617574686f72697a656420746f20617070726f7665206974496e636f72726563742064656c65676174652070726f787920696d706c656d656e746174696f6e20666f72206d616b657246696c6c20697320616c72656164792073657420746f2074686520646573697265642076616c756553656c662d6d61746368696e67206f72646572732069732070726f6869626974656444656c65676174652070726f787920646f6573206e6f7420657869737420666f72206d616b65724669727374206f726465722068617320696e76616c696420706172616d65746572735365636f6e64206f72646572206661696c656420617574686f72697a6174696f6e5365636f6e64206f726465722068617320696e76616c696420706172616d6574657273a264697066735822122047cb69c51684005961f7054adb39a49437155957bf2358b5985585d6f3741f1564736f6c63430007050033",
  "devdoc": {
    "author": "Wyvern Protocol Developers",
    "kind": "dev",
    "methods": {},
    "title": "WyvernExchange",
    "version": 1
  },
  "userdoc": {
    "kind": "user",
    "methods": {},
    "version": 1
  },
  "storageLayout": {
    "storage": [
      {
        "astId": 2791,
        "contract": "contracts/WyvernExchange.sol:WyvernExchange",
        "label": "reentrancyLock",
        "offset": 0,
        "slot": "0",
        "type": "t_bool"
      },
      {
        "astId": 2751,
        "contract": "contracts/WyvernExchange.sol:WyvernExchange",
        "label": "DOMAIN_SEPARATOR",
        "offset": 0,
        "slot": "1",
        "type": "t_bytes32"
      },
      {
        "astId": 1539,
        "contract": "contracts/WyvernExchange.sol:WyvernExchange",
        "label": "personalSignPrefix",
        "offset": 0,
        "slot": "2",
        "type": "t_bytes_storage"
      },
      {
        "astId": 1574,
        "contract": "contracts/WyvernExchange.sol:WyvernExchange",
        "label": "registries",
        "offset": 0,
        "slot": "3",
        "type": "t_mapping(t_address,t_bool)"
      },
      {
        "astId": 1580,
        "contract": "contracts/WyvernExchange.sol:WyvernExchange",
        "label": "fills",
        "offset": 0,
        "slot": "4",
        "type": "t_mapping(t_address,t_mapping(t_bytes32,t_uint256))"
      },
      {
        "astId": 1586,
        "contract": "contracts/WyvernExchange.sol:WyvernExchange",
        "label": "approved",
        "offset": 0,
        "slot": "5",
        "type": "t_mapping(t_address,t_mapping(t_bytes32,t_bool))"
      }
    ],
    "types": {
      "t_address": {
        "encoding": "inplace",
        "label": "address",
        "numberOfBytes": "20"
      },
      "t_bool": {
        "encoding": "inplace",
        "label": "bool",
        "numberOfBytes": "1"
      },
      "t_bytes32": {
        "encoding": "inplace",
        "label": "bytes32",
        "numberOfBytes": "32"
      },
      "t_bytes_storage": {
        "encoding": "bytes",
        "label": "bytes",
        "numberOfBytes": "32"
      },
      "t_mapping(t_address,t_bool)": {
        "encoding": "mapping",
        "key": "t_address",
        "label": "mapping(address => bool)",
        "numberOfBytes": "32",
        "value": "t_bool"
      },
      "t_mapping(t_address,t_mapping(t_bytes32,t_bool))": {
        "encoding": "mapping",
        "key": "t_address",
        "label": "mapping(address => mapping(bytes32 => bool))",
        "numberOfBytes": "32",
        "value": "t_mapping(t_bytes32,t_bool)"
      },
      "t_mapping(t_address,t_mapping(t_bytes32,t_uint256))": {
        "encoding": "mapping",
        "key": "t_address",
        "label": "mapping(address => mapping(bytes32 => uint256))",
        "numberOfBytes": "32",
        "value": "t_mapping(t_bytes32,t_uint256)"
      },
      "t_mapping(t_bytes32,t_bool)": {
        "encoding": "mapping",
        "key": "t_bytes32",
        "label": "mapping(bytes32 => bool)",
        "numberOfBytes": "32",
        "value": "t_bool"
      },
      "t_mapping(t_bytes32,t_uint256)": {
        "encoding": "mapping",
        "key": "t_bytes32",
        "label": "mapping(bytes32 => uint256)",
        "numberOfBytes": "32",
        "value": "t_uint256"
      },
      "t_uint256": {
        "encoding": "inplace",
        "label": "uint256",
        "numberOfBytes": "32"
      }
    }
  }
}